:100000000C9403020C9420020C9420020C94200205
:100010000C9420020C9420020C9420020C942002D8
:100020000C9420020C9420020C9420020C942202C6
:100030000C9420020C9420020C9420020C942002B8
:100040000C9420020C9420020C9458090C948609FC
:100050000C9420020C9420020C9420020C94200298
:100060000C9420020C94200207634236B79BD8A759
:100070001A39685618AEBAAB558C1D3CB7CC5763CD
:10008000BD6DEDFD753EF6177231BF000000803F7B
:1000900008000000BE922449123EABAAAA2ABECD97
:1000A000CCCC4C3E00000080BEABAAAAAA3E000009
:1000B0000000BF000000803F000000000008417801
:1000C000D3BB4387D1133D190E3CC3BD4282AD2B38
:1000D0003E68EC8276BED98FE1A93E4C80EFFFBE30
:1000E00001C4FF7F3F00000000003F3A003138426A
:1000F0003A003138533A0020202020202020002FC1
:100100004275730044737000283F2900283138423B
:10011000290028313853290020534E3A00204352F9
:10012000433A0046433A005374617274206D65612E
:10013000732E206661696C0D000D0068506100200F
:1001400020202020202020202020200020202020CF
:1001500020202020202020200020202020202020BF
:100160002020202020000D00435243206661696C4E
:100170006564202D2069676E6F72696E67207365F4
:100180006E736F723A2000427573204572726F72FF
:100190000D00427573204572726F72004E6F206FB2
:1001A000772053656E736F727320666F756E640D82
:1001B000004E6F206F772053656E736F72732066E9
:1001C0006F756E64004C4344206272696768746E98
:1001D0006573730A004C6F6767696E6720696E7498
:1001E000657276616C0A00315769726520646973C3
:1001F000706C6179206F72646572007772697465E2
:1002000020746F20454550524F4D000D0D000D00DC
:10021000203D2000445331384232300044533138BD
:100220005332302F4453313832300020697320610B
:100230002000202F204275730053656E736F72206B
:10024000446973706C6179000D0D00707265737391
:10025000204D4F444520746F206F746865720020F4
:10026000746F2073746172740A0A00206F72200028
:100270005374617274204C6F6767696E673F0A0040
:1002800020445331385832302053656E736F7228D2
:10029000732920617661696C61626C650D00205381
:1002A000656E736F72287329004E6F2053656E73ED
:1002B0006F727320466F756E64004E6F204453203A
:1002C00053656E736F727320466F756E640044538E
:1002D0003138783230204C6F676765722076312E66
:1002E000303100445331383230204C6F67676572CB
:1002F0002076312E30312E3131340D0004040404C7
:10030000151F0E04040E1F150404040400407A1087
:10031000F35A00A0724E18090010A5D4E80000E8B6
:100320007648170000E40B54020000CA9A3B000014
:1003300000E1F505000080969800000040420F00A3
:100340000000A08601000000102700000000E80364
:10035000000000006400000000000A00000000002F
:100360000100000000002C76D888DC674F0823DFEE
:10037000C1DFAE59E1B1B796E5E3E453C63AE651C1
:10038000997696E8E6C28426EB898C9B62ED407CE8
:100390006FFCEFBC9C9F40F2BAA56FA5F490055A84
:1003A0002AF75C936B6CF9676DC11BFCE0E40D47A9
:1003B000FEF520E6B500D0ED902E030094357705CC
:1003C0000080841E080000204E0A000000C80C3384
:1003D0003333330F986E12831141EF8D2114893B13
:1003E000E65516CFFEE6DB18D1844B381BF77C1D93
:1003F000901DA4BBE424203284725E228100C9F1E6
:1004000024ECA1E53D2711241FBECFEFD4E0DEBFD1
:10041000CDBF11E0A0E0B1E0E8E9FDE302C0059046
:100420000D92A83FB107D9F723E0A8EFB1E001C0D2
:100430001D92A935B207E1F70E94C10F0C94CA1EA4
:100440000C9400001F920F920FB60F9211248F93FD
:100450009F93AF93BF938091F8018F5F8093F801D2
:10046000883C10F18091F9019091FA0101969093E6
:10047000FA018093F9011092F8018091FF01811136
:1004800013C08091FB019091FC01A091FD01B091FE
:10049000FE010196A11DB11D8093FB019093FC010B
:1004A000A093FD01B093FE01BF91AF919F918F91F9
:1004B0000F900FBE0F901F901895CF92DF92EF9282
:1004C000FF920F931F93CF93DF93CDB7DEB728979B
:1004D0000FB6F894DEBF0FBECDBFD12CCC24CA948A
:1004E0007E0189E0E80EF11C40EFBE016F5F7F4F97
:1004F0008C2D0E948208C82EEEEF8E130BC061E097
:1005000080E00E94980781EB91E00E94DD078CE972
:1005100091E00DC0FDEF8F130DC061E080E00E94FF
:10052000980782E991E00E94DD0787E891E00E9448
:10053000080A63C068E0CE0101960E940A06811194
:1005400043C089818F77883211F08031B1F4FE0188
:10055000319688E0D89EA001112443505D4F20E0E1
:1005600030E08191DA01A20FB31F8C932F5F3F4FD0
:1005700028303105B1F7D3943AC08432C1F5FE0179
:100580003196A3ECB2E081918D93EE15FF05D9F77A
:10059000AE014F5F5F4F6BEF71E08FEF91E00E9414
:1005A000710A811124C04091FB015091FC016091BE
:1005B000FD017091FE018091FF019E012F5F3F4F71
:1005C0008C600E94450A13C088E691E00E94080AE8
:1005D0008E010F5F1F4FF80181918F010E943B0A2E
:1005E0000E151F05C1F786E691E00E94080ACC208F
:1005F00021F0F7E0FD1508F077CF8D2D28960FB686
:10060000F894DEBF0FBECDBFDF91CF911F910F9148
:10061000FF90EF90DF90CF900895CF92DF92EF920E
:10062000FF920F931F93CF93DF93C82EC62F0E9484
:10063000AE070C2F10E0F801E751FD4FE08140912B
:100640003F03509140032091990230919A02F0E0CB
:100650004217530774F5241B350B2B3031050CF46E
:1006600058C0EE0FFF1FE15CFC4F808191816AE072
:1006700070E00E942815C0969F938F937F936F938D
:100680001F92CF9382E291E09F938F938CEA92E046
:100690009F938F930E9458198CEA92E00E94D10791
:1006A0008DB79EB70A960FB6F8949EBF0FBE8DBF4A
:1006B00057C0241735076CF5421B530B4B305105BF
:1006C00044F1EE0FFF1FE15CFC4F808191816AE0F5
:1006D00070E00E942815C0969F938F937F936F932D
:1006E0001F92CF9386E391E09F938F938CEA92E0E1
:1006F0009F938F930E9458198CEA92E00E94D10731
:100700008DB79EB70A960FB6F8949EBF0FBE8DBFE9
:1007100027C0EE0FFF1FE15CFC4F808191816AE0F2
:1007200070E00E942815C0969F938F937F936F93DC
:100730001F92CF938AE491E09F938F938CEA92E08B
:100740009F938F930E9458198CEA92E00E94D107E0
:100750008DB79EB70A960FB6F8949EBF0FBE8DBF99
:1007600080913F039091400390939A028093990265
:1007700098012F5F3F4FD12C2C153D050CF090C0F8
:10078000F901E751FD4FE081F0E0EE0FFF1FE15C62
:10079000FC4F808191815AE0E52EF12CB7010E9437
:1007A0002815C0969F938F937F936F933F932F93BA
:1007B0008EE591E09F938F93CCEAD2E0DF93CF93C5
:1007C0000E945819CE010E94D10798012E5F3F4F19
:1007D0008DB79EB70A960FB6F8949EBF0FBE8DBF19
:1007E0002C153D050CF059C0F901E751FD4FE08192
:1007F000F0E0EE0FFF1FE15CFC4F80819181B701BB
:100800000E942815C0969F938F937F936F933F9379
:100810002F9381E791E09F938F93DF93CF930E9473
:100820005819CE010E94D1070D5F1F4F8DB79EB79B
:100830000A960FB6F8949EBF0FBE8DBF0C151D050E
:100840004CF5F801E751FD4FE081F0E0EE0FFF1F9E
:10085000E15CFC4F80819181B7010E942815C09610
:100860009F938F937F936F931F930F9384E891E0EF
:100870009F938F93DF93CF930E945819CE010E94CC
:10088000D1078DB79EB70A960FB6F8949EBF0FBEDC
:100890008DBF0AC089E591E005C08CE491E002C0FB
:1008A0008FE391E00E94DD070E94DC0E6093F1026D
:1008B0007093F2028093F3029093F4020FE413E03A
:1008C00022E04AE00E94D61887E991E00E94FC09E4
:1008D000C8010E94FC0985EA91E00E94FC098CEAAB
:1008E00091E00E94FC090E94FA0E6093D10270937D
:1008F000D2028093D3029093D4022AE0A8010E94EE
:100900000D198FEA91E00E94FC09C8010E94FC09C0
:100910008FEB91E00E94FC098CEA91E00E94FC09B7
:1009200062E081E10E9498078BE391E00E94DD077D
:1009300062E08FE00E9498076091D1027091D2022C
:100940008091D3029091D40224E630E040E050E060
:100950000E945E15CA01B9012AE0A8010E940D1982
:10096000C8010E94D1070E94050F6093F1027093A5
:10097000F2028093F3029093F40222E04AE00E9494
:10098000D61883EC91E00E94FC09C8010E94FC0982
:1009900081ED91E00E94FC098CEA91E00E94FC0943
:1009A0008CEA91E00E94FC0964E87BE28AE090E036
:1009B000DF91CF911F910F91FF90EF90DF90CF903B
:1009C0000C9436069F92AF92BF92CF92DF92EF9235
:1009D000FF920F931F93CF93DF93982E83E20E9491
:1009E000E709C9EECC2EC2E0DC2EE6011AE0A12E0A
:1009F000B12C0EED11E08CEAE82E82E0F82E8C2F5F
:100A00008C19891528F5E991F0E0EE0FFF1FE15CE4
:100A1000FC4F80819181B5010E9428159C01205DC9
:100A20003F4F3F932F937F936F931F930F93FF92AB
:100A3000EF920E9458198CEA92E00E94FC098DB74F
:100A40009EB708960FB6F8949EBF0FBE8DBFD7CF46
:100A500089E391E0DF91CF911F910F91FF90EF908B
:100A6000DF90CF90BF90AF909F900C94080AEF92C8
:100A7000FF920F931F93CF93DF93E82E80E090E0D7
:100A80000E944306882321F0EFE3F3E090E011C0D9
:100A9000CDEFD2E00FE313E0F12CFE14D1F0CE0144
:100AA0000E949B06F801819391938F01F3942896FD
:100AB000F4CF9E1521F0119211929F5FFACF87E239
:100AC00091E0DF91CF911F910F91FF90EF900C94E7
:100AD000080ADF91CF911F910F91FF90EF90089539
:100AE000EF92FF920F931F93CF93DF937C018C01C2
:100AF000C0E0D0E0209719F483E291E00BC0C7304A
:100B0000D10519F48DE191E005C0C130D10521F482
:100B100088E191E00E94080AF80181918F010E940A
:100B20003B0A209789F4F70180818F77803119F48F
:100B300082E191E007C0883219F48CE091E002C0B4
:100B400088E091E00E94080A2196C830D10591F60C
:100B5000DF91CF911F910F91FF90EF9008950F9328
:100B60001F93CF93DF93C82FE82FF0E0E751FD4F9D
:100B7000008160E080E00E94980784E091E00E949C
:100B8000DD0780E38C0F0E94B1078FEF90E00E9499
:100B9000DD0780E3800F0E94B10787EF90E00E949D
:100BA000DD0761E080E00E94980710E0F80123E093
:100BB000EE0FFF1F2A95E1F7E350FD4F8081982F3C
:100BC0009F77903171F482EF90E00E94DD0793E00F
:100BD000000F111F9A95E1F703501D4FC0E0D0E0C0
:100BE0000AC0983219F48DEE90E0EFCF0E94F4071E
:100BF0008AEE90E0EACFF801EC0FFD1F81810E94A0
:100C0000F4072196C630D105B1F7DF91CF911F913E
:100C10000F910895FC0140E070E058E19F01281B0E
:100C2000390B2617370778F4319128E0A32FA42732
:100C3000A0FD02C0469503C04527469540683695FD
:100C40002150A1F7EBCF842F0895FC01680F791F85
:100C500080E0E617F70741F0219198E08227817044
:100C600026959150D9F7F5CF90E00895DC01CB019E
:100C700081159105A105B10529F081509040A04052
:100C8000B040D9F70895BC0184E40E94590881114D
:100C900008C066E471E48FE090E00E94360680E0D0
:100CA00008958FEF0895DF92EF92FF920F931F93B5
:100CB000CF93DF93CDB7DEB72A970FB6F894DEBF98
:100CC0000FBECDBF009719F48FE097E226C0BC019C
:100CD0008EEB0E9459088111F7CF8E010F5F1F4FD5
:100CE0007E018AE0E80EF11CD02E912F8FEF9A87BB
:100CF0000E943108F80181938F019A85EE15FF0556
:100D0000A9F769E08D2D0E940A068111DDCF8A8145
:100D100090E0982F88272981822B2A960FB6F89485
:100D2000DEBF0FBECDBFDF91CF911F910F91FF901E
:100D3000EF90DF900895BF92CF92DF92EF92FF92F3
:100D40000F931F93CF93DF93CDB7DEB762970FB6A4
:100D5000F894DEBF0FBECDBF7C0188E0EAE1F1E090
:100D6000DE011A9601900D928A95E1F7E114F104E3
:100D700019F48FE097E273C0B7018EEB0E94590817
:100D80008111F7CF8E010F5F1F4F6E014AE0C40E35
:100D9000D11CB02E912F8FEF9A8B0E943108F80151
:100DA00081938F019A89EC15FD05A9F769E08B2DD8
:100DB0000E940A068111DDCF29818A8130E0382B1B
:100DC000F70140814F77403171F4C9018E7F53E0C4
:100DD000880F991F5A95E1F75F812CE030E0251BC1
:100DE0003109280F391F37FF05C031952195310989
:100DF000A1E001C0A0E0483271F48D81982F907677
:100E0000903649F086FF02C02E7F05C085FF02C0E4
:100E10002C7F01C0287FC90144E0969587954A95AB
:100E2000E1F72F703327A1110FC0F601AE014E5E1E
:100E30005F4F619170E02617370719F42F5F3F4F1E
:100E400003C0E417F507A9F7FAE08F9F200D311DC5
:100E50001124AA2319F0319521953109C90162960F
:100E60000FB6F894DEBF0FBECDBFDF91CF911F91BB
:100E70000F91FF90EF90DF90CF90BF9008952E9A42
:100E800000C02E9808951F93CF93DF931F92CDB784
:100E9000DEB7662311F02C9A01C02C982D9894B1DE
:100EA0009F6094B915B1107F982F92959F70912BE8
:100EB00095B989830E943F0789818F70812B85B9FD
:100EC0000E943F071F6015B90F90DF91CF911F91CE
:100ED00008952C982D9A84B1807F84B92E9A00C0F1
:100EE00083B12E9800C02E9A00C093B19F70829556
:100EF000807F2E98892B08950E94690787FDFCCF7B
:100F000084E090E00197F1F70C946907CF93C82F24
:100F10000E947C0760E08C2FCF910C944307CF9305
:100F2000C82F0E947C0761E08C2FCF910C9443075F
:100F3000611102C0805809C0613011F4805405C0AD
:100F4000623011F48C5601C08C520C9486070E94BA
:100F50007C0790E0089581E00C94860782E00C9471
:100F60008607CF93C82F0E947C07982FCA30A1F420
:100F7000843148F080EC890F843138F094519C32F0
:100F800030F484E505C080E403C084E101C080E062
:100F90008058CF910C94860761E08C2FCF910C94F0
:100FA0004307CF93DF93EC018991882319F00E94C6
:100FB000B107FACFDF91CF910895CF93DF93FC0172
:100FC0008491EF012196882321F00E94B107FE0150
:100FD000F7CFDF91CF9108958F708A3010F0895C40
:100FE00001C0805D0C94B107CF93C82F82958F709C
:100FF0000E94EC078C2FCF910C94EC07CF93C82F55
:1010000094B19F6794B9E0E0FDE73197F1F7299A31
:10101000289A0E943F07E0E0F7E23197F1F70E943B
:101020003F07E0E8F0E03197F1F70E943F07E0E882
:10103000F0E03197F1F728980E943F07E0E8F0E0F0
:101040003197F1F788E20E94860788E00E948607C0
:101050000E94AB0786E00E9486078C2FCF910C94EC
:101060008607EF92FF920F931F93CF93DF93E82EA3
:10107000C0E0D0E0F12C01E010E0C8010C2E01C06E
:10108000880F0A94EAF78E210E940709282F0C2E58
:1010900001C0220F0A94EAF7F22A2196C830D1053E
:1010A00061F78F2DDF91CF911F910F91FF90EF90FE
:1010B0000895FF920F931F93CF93DF93F82EEB01C8
:1010C0000E94E5088823B9F0209769F085E50E9421
:1010D00031088E01085F1F4F89910E943108C017A7
:1010E000D107D1F703C08CEC0E9431088F2D0E94EC
:1010F000310880E001C08FEFDF91CF911F910F91F8
:10110000FF900895AF92BF92DF92EF92FF920F93FC
:101110001F93CF93DF931F92CDB7DEB7E82E5B010D
:1011200049830E94E50849818823A9F1842F0E9400
:101130003108F12C10E488EFD82ED10E81E00E9406
:101140000709082F81E00E940709882319F000236E
:1011500069F023C001110AC01E1530F0F50180812D
:1011600080FF04C0E11611F0F12E01E0802F0E94F3
:101170000709F50190819695002311F09068F5011B
:10118000908311501D11DACFFFEFAF1ABF0A111172
:10119000D2CF8F2D03C08EEF01C08DEF0F90DF9166
:1011A000CF911F910F91FF90EF90DF90BF90AF9084
:1011B00008958115910511F00197F1F7089556985A
:1011C0005E988FEB93E00C94D908CF93DF93569AF7
:1011D0005E9887ED93E00E94D908DFB7F89456989F
:1011E0005E988BE890E00E94D908C9B1DFBF83E325
:1011F00093E00E94D90899B1C6FB882780F98095B1
:1012000096FB992790F98923DF91CF910895CF9389
:10121000DF93DFB7F894569A5E9800000000000054
:1012200000000000000000000000000000000000BE
:1012300000000000000000000000000000000000AE
:10124000000000000000000000000000000000009E
:10125000000000000000000000000000000000008E
:101260000000811156985E9881E090E00E94D908B4
:10127000C9B183E590E00E94D90856985E980000B5
:10128000000000000000000000000000000000005E
:10129000000000000000000000000000000000004E
:1012A0000000DFBFC6FB882780F9DF91CF9108954A
:1012B0001F920F920FB60F9211242F938F939F932B
:1012C000EF93FF938091C0009091C6008C71E091E4
:1012D0000202EF5FEF7120910102E21739F0E09313
:1012E0000202F0E0EB5FFD4F908301C082E090913D
:1012F0000002982B90930002FF91EF919F918F91A4
:101300002F910F900FBE0F901F9018951F920F9264
:101310000FB60F9211248F939F93EF93FF939091A9
:10132000040280910302981769F0E0910302EF5FD5
:10133000EF71E0930302F0E0EB5DFD4F808180935D
:10134000C60005C08091C1008F7D8093C100FF91D0
:10135000EF919F918F910F900FBE0F901F90189556
:1013600010920402109203021092020210920102E3
:1013700097FF03C022E02093C00090789093C500AF
:101380008093C40088E98093C10086E08093C20006
:10139000089590910202809101029817A9F090910E
:1013A00001029F5F9F71E92FF0E0EB5FFD4F20810D
:1013B00080910002909301021092000290E0982F19
:1013C0008827820F911D089580E091E00895909103
:1013D00004029F5F9F71209103029217E1F3E92FAE
:1013E000F0E0EB5DFD4F8083909304028091C1009B
:1013F00080628093C1000895CF93DF93EC018991BF
:10140000882319F00E94E709FACFDF91CF91089560
:10141000CF93DF93FC018491EF012196882321F083
:101420000E94E709FE01F7CFDF91CF910895CF9396
:10143000DF93CDB7DEB761970FB6F894DEBF0FBE6E
:10144000CDBF4AE050E0BE016F5F7F4F0E94F718AA
:101450000E94FC0961960FB6F894DEBF0FBECDBFA7
:10146000DF91CF9108958F708A3010F0895C01C0B0
:10147000805D0C94E709CF93C82F82958F700E94EE
:10148000330A8C2FCF910C94330AFF920F931F9342
:10149000CF93DF93F82E8A01D62FC72F2115310560
:1014A00011F48FEF18C0B90189E90E945908811120
:1014B000F8CF8F2D0E943108802F0E943108812F94
:1014C0000E9431088D2F0E9431088C2F0E94310814
:1014D0000E94E50880E0DF91CF911F910F91FF906E
:1014E0000895CF92DF92EF92FF92CF93DF937C012A
:1014F000EB014115510511F48FEF31C0BA0186E6B9
:101500000E9459088111F8CF8FEF0E943108F7012E
:1015100080838FEF0E943108C82ED12CE12CF12C52
:10152000C882D982EA82FB828FEF0E943108D82AD2
:10153000C882D982EA82FB828FEF0E943108E82AB2
:10154000C882D982EA82FB828FEF0E943108F82A92
:10155000C882D982EA82FB820E94E50880E0DF919E
:10156000CF91FF90EF90DF90CF900895CF92DF92D0
:10157000EF92FF92CF93DF93FC01C0812C2F30E0DC
:10158000D181828190E00197AD2FB0E0AA0FBB1FFF
:10159000A050BF4F4D915C91840F951FD901A65467
:1015A000B1096DE671E0A69FA001A79F500DB69FFF
:1015B000500D1124840F951F2554310937FF02C0A7
:1015C0002D5F3F4F3595279535952795280F391F66
:1015D000D23020F0C37011F42F5F3F4FA8E1B0E08C
:1015E0000E947D159B01AC018381280F311D411D97
:1015F000511DA0E1BEE00E948C156B017C0124818D
:1016000030E0ACE3B0E00E947D152581620F711DD2
:10161000811D911D6C0D7D1D8E1D9F1DDF91CF9134
:10162000FF90EF90DF90CF9008958F929F92AF92AE
:10163000BF92CF92DF92EF92FF920F931F93CF93BF
:10164000DF93162FEA016CE3C62ED12CE12CF12C8E
:10165000612FA70196010E943C15022FCA017CE36D
:10166000B72EB29E101911241D83622F732FA7016C
:1016700096010E943C15122FCA01B29E0019112436
:101680000C83622F732F28E130E040E050E00E948D
:101690003C1588E1289F101911241B8369017A01E8
:1016A0008BEDC80E82E0D81EE11CF11CC701B6010B
:1016B00025EB35E040E050E00E943C154B015C0119
:1016C00089018CE38816910410F00F5F1F4FC7014A
:1016D000B601601B710B810991092DE631E040E0F4
:1016E00050E00E943C156DE671E0629FC001639F6F
:1016F000900D729F900D1124C81AD90AC01AD10AF0
:101700008CE3881A910882E3881681E0980618F421
:101710008FEFC81AD80A44E4420F4883EAE1F1E0A7
:101720008EE691E02DE030E04370C816D90658F4FB
:10173000215031099291829122303105B0F341114B
:10174000F4CF0196F2CF2983C394C81ACA82DF91DD
:10175000CF911F910F91FF90EF90DF90CF90BF90AE
:10176000AF909F908F9008951F93CF93DF931F9218
:10177000CDB7DEB7182F8EEE69830E946B0F812FD5
:101780000E949C0F6981862F0E949C0F0F90DF9111
:10179000CF911F910C94940FAF92BF92DF92EF9272
:1017A000FF920F931F93CF93DF9300D0CDB7DEB797
:1017B000182FD42E8EEE69837A830E946B0F812FAF
:1017C0000E949C0F8FEE0E94920F6981A62E7A8153
:1017D000B72E00E010E0ED2CF12C81E0E81AF108C2
:1017E0000D1580F40E151F0519F40E94B70F02C0E5
:1017F0000E94AD0FF50180830F5F1F4FFFEFAF1AFF
:10180000BF0AEECF0F900F90DF91CF911F910F91F4
:10181000FF90EF90DF90BF90AF900C94940F0F93D8
:101820001F93E5E4F2E0048115812681378101935D
:1018300011932193319322E0E939F207A1F76093E4
:101840009502709396028093970290939802E5E434
:10185000F2E060E070E0CB010191119121913191B2
:10186000600F711F821F931F22E0E939F207A1F771
:1018700025E130E040E050E00E945E15CA01B90168
:101880001F910F910895CF93DF9300D0CDB7DEB7AE
:101890001A82198242E0BE016F5F7F4F8AEA0E947E
:1018A000CC0B898190E0982F88272A81822B9093F6
:1018B000E8028093E70242E0BE016F5F7F4F8CEA4F
:1018C0000E94CC0B898190E0982F88272A81822B57
:1018D00090933E0380933D0342E0BE016F5F7F4FD4
:1018E0008EEA0E94CC0B898190E0982F88272A816C
:1018F000822B9093D0028093CF0242E0BE016F5FB3
:101900007F4F80EB0E94CC0B898190E0982F882735
:101910002A81822B9093AA028093A90242E0BE0101
:101920006F5F7F4F82EB0E94CC0B898190E0982FF4
:1019300088272A81822B9093FA028093F90242E051
:10194000BE016F5F7F4F84EB0E94CC0B898190E0DA
:10195000982F88272A81822B9093DC028093DB02C8
:1019600042E0BE016F5F7F4F86EB0E94CC0B898106
:1019700090E0982F88272A81822B9093DA02809317
:10198000D90242E0BE016F5F7F4F88EB0E94CC0B13
:10199000898190E0982F88272A81822B9093C20218
:1019A0008093C10242E0BE016F5F7F4F8AEB0E94CD
:1019B000CC0B898190E0982F88272A81822B9093E5
:1019C000F8028093F70242E0BE016F5F7F4F8CEB1D
:1019D0000E94CC0B898190E0982F88272A81822B46
:1019E0009093FC028093FB0242E0BE016F5F7F4F49
:1019F0008EEB0E94CC0B898190E0982F88272A815A
:101A0000822B9093DE028093DD020F900F90DF9186
:101A1000CF910895CF92DF92EF92FF92CF93DF9311
:101A200000D0CDB7DEB71A8219826EE284EF0E9431
:101A3000B40B8FE097E20197F1F700C0000042E09D
:101A4000BE016F5F7F4F86EF0E94CC0B2981822FF2
:101A500090E0A0E0B0E02227382F492F5A2F8A814A
:101A6000282B8091DB029091DC02281B390B410965
:101A70005109A091F902B091FA020E948C156B01F4
:101A80007C014FE0F594E794D794C7944A95D1F739
:101A90006091FB027091FC02882777FD8095982F5A
:101AA0005BE0660F771F881F991F5A95D1F7209129
:101AB000DD023091DE02442737FD4095542F2C0D76
:101AC0003D1D4E1D5F1D0E945E152C0D3D1D4E1DC2
:101AD0005F1D2093D5023093D6024093D7025093D6
:101AE000D8020F900F90DF91CF91FF90EF90DF9091
:101AF000CF9008954F925F926F927F928F929F92B4
:101B0000AF92BF92CF92DF92EF92FF92CF93DF938B
:101B1000CDB7DEB72B970FB6F894DEBF0FBECDBFA3
:101B200019821A821B820E940A0D64EF84EF0E94C0
:101B3000B40B8FE19BEC0197F1F700C0000043E08C
:101B4000BE016F5F7F4F86EF0E94CC0B8091D50264
:101B50009091D602A091D702B091D802805A9F40AE
:101B6000A109B1098C839D83AE83BF839C01AD0124
:101B7000BC01CD010E9418152B013C01E091E70248
:101B8000F091E802A091CF02B091D0020E94971587
:101B90006B017C013DE0F594E794D794C7943A95A6
:101BA000D1F7A091D902B091DA02A30192016CE0C1
:101BB00055954795379527956A95D1F70E949715C2
:101BC000BB2797FDB095AB2FC80ED91EEA1EFB1E92
:101BD00092E0C90ED11CE11CF11CB2E0F594E7942F
:101BE000D794C794BA95D1F7A0E8DA0EE11CF11C9E
:101BF000A091A902B091AA02A70196010E948C159A
:101C0000DC01CB012FE0B695A795979587952A958E
:101C1000D1F788879987AA87BB878981CA80D12C09
:101C2000E12CF12CFE2CED2CDC2CCC24E82A8B8131
:101C3000C82A45E0F594E794D794C7944A95D1F71C
:101C40004F01AA2497FCA094BA2C52E0880C991C4E
:101C5000AA1CBB1C5A95D1F7A091C102B091C20237
:101C6000A30192010E9497152B013C0167E1759435
:101C70006794579447946A95D1F7A0913D03B0912A
:101C80003E032C813D814E815F810E949715EBE0E0
:101C90009595879577956795EA95D1F7460E571EE6
:101CA000681E791E840C951CA61CB71C880C991CF8
:101CB000AA1CBB1CC818D908EA08FB08AAE6B8E1A8
:101CC000A70196010E948C1597FD0DC0660F771F26
:101CD000881F991F288539854A855B850E943C1598
:101CE00049015A010CC0288539854A855B850E94C7
:101CF0003C1549015A01880C991CAA1CBB1C992748
:101D0000B7FC9A958B2D7A2D692D9B01AC010E9411
:101D100018159B01AC01AEEDBBE00E948C156C0167
:101D2000FF24D7FCF094EF2CA3E4B3EEA5019401BB
:101D30000E949A15BB2797FDB095AB2FC80ED91EF0
:101D4000EA1EFB1E9FECC90E9EE0D91EE11CF11C91
:101D5000A4E0F594E794D794C794AA95D1F7C80C5A
:101D6000D91CEA1CFB1CC092CB02D092CC02E092A0
:101D7000CD02F092CE02C701B6010E940F0C609313
:101D8000CB027093CC028093CD029093CE022B961F
:101D90000FB6F894DEBF0FBECDBFDF91CF91FF909D
:101DA000EF90DF90CF90BF90AF909F908F907F90FB
:101DB0006F905F904F9008950E940A0D6091D50238
:101DC0007091D6028091D7029091D802685F7F4FC0
:101DD0008F4F9F4FA4E09595879577956795AA9526
:101DE000D1F70E94821620E030E040E251E40E94E8
:101DF000181608950E947A0D6091CB027091CC0262
:101E00008091CD029091CE0208950E947A0D60914A
:101E1000CB027091CC028091CD029091CE020E94B3
:101E2000821620E836EE45EC57E40E94181621E0B1
:101E30003EED42E45EE30E940E179B01AC0160E0C0
:101E400070E080E89FE30E94B3152BE43AE34DEB8A
:101E500057E30E94181620E030E0A9010E94B41553
:101E60000895CF930E94430F8AE18A95F1F700C04D
:101E70000E94430C0E940A0DC5E10E947A0DC150D8
:101E8000E1F7CF9108951092B90080E28093B800F5
:101E9000089594EA9093BC009091BC0097FFFCCF0A
:101EA0009091B900987F983021F0903111F081E045
:101EB00008958093BB0084E88093BC008091BC00AF
:101EC00087FFFCCF8091B900887F883111F0803482
:101ED00071F780E0089524EA34E844E92093BC00D7
:101EE0009091BC0097FFFCCF9091B900987F9830FB
:101EF00011F0903199F78093BB003093BC00909122
:101F0000BC0097FFFCCF9091B900987F903211F000
:101F1000983539F44093BC009091BC0094FDFCCFFF
:101F2000DDCF08950C94490F84E98093BC00809123
:101F3000BC0084FDFCCF08958093BB0084E88093AF
:101F4000BC008091BC0087FFFCCF9091B900987FC6
:101F500081E0983209F480E0089584EC8093BC001D
:101F60008091BC0087FFFCCF8091BB00089584E87E
:101F70008093BC008091BC0087FFFCCF8091BB00A8
:101F8000089517B88FE088B957985F9A27982F9AC5
:101F90008AB1837E8AB98BB18C618BB9559A83E201
:101FA00084BD82E085BD89E490E00E945C1B809343
:101FB000AB0288BD80E49CE99093890080938800FF
:101FC00089E08093810078948CE00E94FE0780E491
:101FD0000E948607CCEFD2E0FE0184910E948F0719
:101FE0002196F3E0CC30DF07B9F70E94AB0789E117
:101FF00090E00E94B0090E94310F83EE92E00E94AF
:10200000080A60E080E00E9498078EEC92E00E944F
:10201000DD0768E077E584E190E00E9436060E94E3
:102020005D02382E81110EC08091FF0181110AC01E
:1020300062E00E9498078AEB92E00E94DD0789EA3D
:1020400092E019C04AE06CEA72E0832D90E00E94B1
:10205000021962E080E00E9498078CEA92E00E94F8
:10206000D1078EE992E00E94DD078CEA92E00E949F
:10207000FC0980E892E00E94080A60E17EEA88E2BA
:1020800090E00E94360680E090E0C0E0D0E021E0E1
:1020900030E0831558F4A901082E02C0440F551FE3
:1020A0000A94E2F7C42BD52B0196F3CF88E490E095
:1020B0000E945C1B182F83111DC048E050E060E4B3
:1020C00070E089EE92E00E944C1B49EE52E0FA016A
:1020D00061E070E08E2F841B811760F49B010190FA
:1020E00002C0220F331F0A94E2F720953095C223D5
:1020F000D323F0CFCD2BB1F0632D88E490E00E9484
:10210000741B89EE92E0FC012E2F281B231510F47E
:102110002193FACF48E050E060E470E089EE92E06D
:102120000E946A1B8AE490E00E94641B9093F6026E
:102130008093F50205978B30974260F08FE090E036
:102140009093F6028093F5026FE070E08AE490E0ED
:102150000E94821B0E94AB0782E080936F00212CBB
:102160000DEE11E0CCEAD2E0C32CD12C260141E0E7
:10217000441A5108332009F4D2C30E94AB0780E708
:1021800092E00E94DD0780E00E94B1078BE692E0BA
:102190000E94DD0781E00E94B1078FE592E00E9476
:1021A000DD078BE492E00E94DD0783B190E080952B
:1021B000909587FD12C089B190E08095909582FD41
:1021C0000CC089B190E08095909583FD06C089B1DF
:1021D00090E08095909584FFE8CF83B190E0809562
:1021E000909587FF09C00E94AB0783B190E080956E
:1021F000909587FDFACF1FC10E94AB0789B190E08F
:102200008095909582FDFACF89B190E08095909568
:1022100083FDF4CF89B190E08095909584FDEECF59
:1022200088E492E00E94080A79EEA72E72E0B72EA9
:10223000E12CF12CE314D8F53501F50181905F0113
:1022400089E392E00E94080AC7010E94170A82E30C
:1022500092E00E94080AF301808190E00E94170A30
:102260008BE292E00E94080AF8E08F9E4001112460
:10227000F401E350FD4F80818F77803119F48CE1B8
:1022800092E002C084E192E00E94080A80E192E0BC
:102290000E94080AC40183509D4F0E9470058EE081
:1022A00092E00E94080A2FEFE21AF20AC3CF8BE0F5
:1022B00092E00E94080A8091FF01811108C01092EB
:1022C000FB011092FC011092FD011092FE010E9490
:1022D000AB07832D0E943705832D0E94E204622DF7
:1022E000832D0E940D031092FA011092F90168EEFD
:1022F000E62E61E0F62EBB24BA94B30C4B2D4E7F34
:10230000B42E89B190E08095909583FF20C068E657
:1023100071E184E090E00E94360689B190E08095FA
:10232000909582FD79C0E3E0E21518F42A942A948E
:1023300001C02B2C0E94AB07622D832D0E940D0340
:1023400089B190E08095909583FDFACFDACF89B17D
:1023500090E08095909582FF23C068E671E184E06B
:1023600090E00E94360689B190E08095909583FDBB
:1023700053C0822D90E004968C159D051CF4239487
:10238000239401C0212C0E94AB07622D832D0E9453
:102390000D0389B190E08095909582FDFACFB1CF81
:1023A0002091F9013091FA018091F5029091F602A5
:1023B0002817390780F0832D0E943705832D0E944E
:1023C000E2040E94AB07622D832D0E940D03109240
:1023D000FA011092F90160E08FE00E9498072091C5
:1023E000F9013091FA018091F5029091F602821B79
:1023F000930B9F938F93FF92EF92DF93CF930E9463
:1024000058198CEA92E00E94D1070F900F900F901C
:102410000F900F900F9075CF0E94AB0789B190E09D
:102420008095909582FDFACF89B190E08095909546
:1024300083FDF4CF9FCE63E081E00E9498078BEF8D
:1024400091E00E94DD0760E080E00E94980787EE3F
:1024500091E00E94DD0761E080E00E94980759EE5C
:10246000E52E52E0F52E57019E2C8A2D8E198315EC
:1024700038F4F50181915F01805D0E94B107F5CFCD
:1024800061E080E00E9498078DE00E948607B12CF1
:1024900023B130E02095309527FD7EC089B190E0D2
:1024A0008095909584FF12C0B3948B2D90E08C158D
:1024B0009D050CF0B12C61E08B2D0E94980789B12D
:1024C00090E08095909584FDFACFE2CF89B190E0BD
:1024D0008095909582FF2CC0BB2019F1EB2DF0E088
:1024E000DF01A751BD4F8C91E851FD4F90819C9326
:1024F0008083BA9461E080E00E94980749EEE42E60
:1025000042E0F42E8E2D8919831538F4F70181915C
:102510007F01805D0E94B107F5CF61E08B2D0E94A5
:10252000980789B190E08095909582FDFACFB0CF61
:1025300089B190E08095909583FFAACF2B2D30E054
:102540002415350514F5D901A751BD4F8C91F9011A
:10255000E651FD4F90819C938083B39461E080E0CD
:102560000E94980739EEE32E32E0F32E8E2D891962
:10257000831538F4F70181917F01805D0E94B107D6
:10258000F5CF61E08B2D0E94980729B130E02095AE
:10259000309523FDFACF7CCF48E050E060E470E056
:1025A00089EE92E00E946A1BF1E03F1209C080911F
:1025B00005038093390048E050E068E370E06BC0A9
:1025C00022E0321215C0809105038093390048E063
:1025D00050E068E370E08DEF92E00E946A1B80910A
:1025E0000D038093310048E050E060E370E053C099
:1025F00043E0341221C0809105038093390048E004
:1026000050E068E370E08DEF92E00E946A1B8091D9
:102610000D038093310048E050E060E370E08DEFFF
:1026200092E00E946A1B809115038093290048E084
:1026300050E068E270E02FC084E0381230C0809132
:1026400005038093390048E050E068E370E08DEFC7
:1026500092E00E946A1B80910D038093310048E054
:1026600050E060E370E08DEF92E00E946A1B809181
:1026700015038093290048E050E068E270E08DEF98
:1026800092E00E946A1B80911D038093210048E024
:1026900050E060E270E08DEF92E00E946A1B8CE0F7
:1026A0000E9486070E94AB0783B190E080959095C9
:1026B00087FDFACF0E94AB0785ED91E00E94DD0710
:1026C0008091F6028F938091F5028F931F930F9361
:1026D000DF93CF930E9458198CEA92E00E94D107B1
:1026E0000F900F900F900F900F900F90FFE0EF2E34
:1026F000F7E2FF2E83B190E08095909587FD92C020
:10270000B12C89B190E08095909582FF43C0809173
:10271000F5029091F6028F30E7E29E079CF5F2E019
:10272000FB1530F424E0B29E800D911D112401C0F0
:1027300001969093F6028093F5028091F5029091B4
:10274000F6028031974224F0F092F602E092F50210
:1027500061E080E00E9498078091F6028F9380915B
:10276000F5028F931F930F93DF93CF930E94581915
:102770008CEA92E00E94D1070F900F900F900F907B
:102780000F900F9068E671E184E090E00E943606B9
:10279000B394B7CFB12C89B190E08095909583FF29
:1027A000A9CF8091F5029091F6028630910594F1BF
:1027B000E2E0EB1580F4F4E0BF9E90011124AC013F
:1027C00045505109241735071CF4821B930B04C094
:1027D00085E090E001C001979093F6028093F502A6
:1027E00061E080E00E9498078091F6028F938091CB
:1027F000F5028F931F930F93DF93CF930E94581985
:102800008CEA92E00E94D1070F900F900F900F90EA
:102810000F900F9068E671E184E090E00E94360628
:10282000B394B9CF6091F5027091F6028AE490E01A
:102830000E94821B0E94AB0783B190E08095909527
:1028400087FDFACF80E00E94AF05612CE1EFEE2E0C
:10285000E1E0FE2E77247A94730C23B130E02095CA
:10286000309527FD54C0A62CB12CF501E751FD4F42
:10287000808060E08AE00E949807F8E08F9E400127
:102880001124C40183509D4F4C010E944306C40192
:102890000E9453069F938F93FF92EF92DF93CF9303
:1028A0000E9458198CEA92E00E94D10789B190E009
:1028B000809590950F900F900F900F900F900F9024
:1028C00082FF10C0A414B50414F4639401C0612CF9
:1028D000862D0E94AF0589B190E08095909582FD8C
:1028E000FACFBBCF89B190E08095909583FFB5CFAB
:1028F000662011F06A9401C0672C862D0E94AF05F6
:1029000089B190E08095909583FDFACFA6CF0E9483
:10291000AB0783B190E08095909587FDFACF0E9438
:10292000AB0785EC91E00E94DD078091AB021F921E
:102930008F931F930F93DF93CF930E9458198CEAC4
:1029400092E00E94D1070F900F900F900F900F9080
:102950000F9083B190E08095909587FD5AC089B122
:1029600090E08095909582FF4DC08091AB028F3FA3
:10297000E1F08F5F8093AB0288BD61E080E00E9450
:1029800098078091AB021F928F931F930F93DF9351
:10299000CF930E9458198CEA92E00E94D1070F90C1
:1029A0000F900F900F900F900F906DE272E880E003
:1029B00090E00E943606D3CF8091AB028823E1F0ED
:1029C00081508093AB0288BD61E080E00E9498074F
:1029D0008091AB021F928F931F930F93DF93CF933E
:1029E0000E9458198CEA92E00E94D1070F900F9034
:1029F0000F900F900F900F906DE272E880E090E0E2
:102A00000E94360689B190E08095909583FDD4CFE1
:102A1000A0CF6091AB0289E490E00E94741B0E94F9
:102A2000AB0783B190E08095909587FDFACFA2CB5C
:102A3000DB018F939F930E948C15BF91AF91A29F52
:102A4000800D911DA39F900DB29F900D11240895AC
:102A500097FB072E16F4009407D077FD09D00E944B
:102A60009F1507FC05D03EF4909581959F4F0895E2
:102A7000709561957F4F0895A1E21A2EAA1BBB1B8A
:102A8000FD010DC0AA1FBB1FEE1FFF1FA217B3073A
:102A9000E407F50720F0A21BB30BE40BF50B661F50
:102AA000771F881F991F1A9469F760957095809514
:102AB00090959B01AC01BD01CF010895052E97FBB8
:102AC0001EF400940E94751557FD07D00E943C1516
:102AD00007FC03D04EF40C94751550954095309535
:102AE00021953F4F4F4F5F4F08959095809570957A
:102AF00061957F4F8F4F9F4F0895A29FB001B39F65
:102B0000C001A39F700D811D1124911DB29F700DF6
:102B1000811D1124911D08950E947D15A59F900D82
:102B2000B49F900DA49F800D911D11240895B7FFAF
:102B30000C948C150E948C15821B930B0895AA1B74
:102B4000BB1B51E107C0AA1FBB1FA617B70710F098
:102B5000A61BB70B881F991F5A95A9F780959095CA
:102B6000BC01CD0108955058BB27AA270ED01CC127
:102B70000DD130F012D120F031F49F3F11F41EF44A
:102B800002C10EF4E095E7FBF8C0E92F1ED180F3F7
:102B9000BA17620773078407950718F071F49EF55A
:102BA00036C10EF4E0950B2EBA2FA02D0B01B90102
:102BB00090010C01CA01A0011124FF27591B99F0B3
:102BC000593F50F4503E68F11A16F040A22F232FBF
:102BD000342F4427585FF3CF469537952795A7950F
:102BE000F0405395C9F77EF41F16BA0B620B730BB6
:102BF000840BBAF09150A1F0FF0FBB1F661F771F27
:102C0000881FC2F70EC0BA0F621F731F841F48F4DB
:102C1000879577956795B795F7959E3F08F0B3CF61
:102C20009395880F08F09927EE0F9795879508954B
:102C30000CD0BAC0B2D040F0A9D030F021F45F3F40
:102C400019F09BC05111E4C09EC0BFD098F39923E6
:102C5000C9F35523B1F3951B550BBB27AA27621760
:102C60007307840738F09F5F5F4F220F331F441FA5
:102C7000AA1FA9F333D00E2E3AF0E0E830D09150DD
:102C80005040E695001CCAF729D0FE2F27D0660FCA
:102C9000771F881FBB1F261737074807AB07B0E809
:102CA00009F0BB0B802DBF01FF2793585F4F2AF01F
:102CB0009E3F510568F061C0ABC05F3FECF3983EAA
:102CC000DCF3869577956795B795F7959F5FC9F77C
:102CD000880F911D9695879597F90895E1E0660F05
:102CE000771F881FBB1F621773078407BA0720F07E
:102CF000621B730B840BBA0BEE1F88F7E0950895E7
:102D0000E89409C097FB3EF4909580957095619585
:102D10007F4F8F4F9F4F9923A9F0F92F96E9BB273B
:102D20009395F695879577956795B795F111F8CFB7
:102D3000FAF4BB0F11F460FF1BC06F5F7F4F8F4F22
:102D40009F4F16C0882311F096E911C0772321F018
:102D50009EE8872F762F05C0662371F096E8862FB0
:102D600070E060E02AF09A95660F771F881FDAF707
:102D7000880F9695879597F9089597F99F6780E84A
:102D800070E060E008959FEF80EC089500240A94BD
:102D90001616170618060906089500240A94121636
:102DA0001306140605060895092E0394000C11F469
:102DB000882352F0BB0F40F4BF2B11F460FF04C016
:102DC0006F5F7F4F8F4F9F4F089557FD9058440F6F
:102DD000551F59F05F3F71F04795880F97FB991F7A
:102DE00061F09F3F79F08795089512161306140637
:102DF000551FF2CF4695F1DF08C0161617061806C4
:102E0000991FF1CF86957105610508940895E8949E
:102E1000BB2766277727CB0197F90895FA01EE0FB4
:102E2000FF1F30962105310599F16115710561F497
:102E30008038BFE39B0749F168949038810561F0C1
:102E40008038BFEF9B0741F0992342F5FF3FE10532
:102E50003105210511F1E8940894E795D901AA23D9
:102E600029F4AB2FBE2FF85FD0F310C0FF5F70F4D2
:102E7000A695E0F7F73950F019F0FF3A38F49F774C
:102E80009F930CD00F9007FC905808953EF07BCF95
:102E900060E070E080E89FE308954FE79F775F93DD
:102EA0004F933F932F939ED02F913F914F915F91DE
:102EB0000CD105C019F40EF060CFA9CF64CF8DDF1F
:102EC000C8F39638C0F707F80F92E8942BE33AEA74
:102ED00048EB5FE708D10F920F920F924DB75EB7A4
:102EE0000F92C0D0E8E6F0E016D04F915F91EF91DD
:102EF000FF91E595EE1FFF1F49F0FE57E06844275C
:102F0000EE0F441FFA95E1F74195550B32D00F9023
:102F100007FE26C00895DF93CF931F930F93FF9270
:102F2000EF92DF927B018C01689405C0DA2EEF01ED
:102F3000D8D0FE01E894A591259135914591559100
:102F4000AEF3EF0122DEFE019701A801DA9479F7D2
:102F5000DF90EF90FF900F911F91CF91DF91089537
:102F60009B01AC0160E070E080E89FE361CE05CF9B
:102F70000FC133DFE8F39923D9F3940F511DBBF34D
:102F80009150504094F059F0882332F0660F771F2B
:102F9000881F91505040C1F79E3F510544F7880F5C
:102FA000911D9695879597F908955F3FACF0983EEF
:102FB0009CF0BB27869577956795B79508F4B16027
:102FC0009395C1F7BB0F58F711F460FFE8CF6F5F1F
:102FD0007F4F8F4F9F4FE3CF1BCF0EF0D9C0D3CE83
:102FE0006894CBCEFADEC8F39923D1F3C6F3DF930E
:102FF000CF931F930F93FF92C92FDD2788232AF0C9
:103000002197660F771F881FDAF720E030E040E84D
:103010005FEB9FE3883920F0803E30F021968F7778
:10302000A3DDE0E9F0E003C09FDDEDEBF0E073DF4E
:103030008B01BE01EC01FB2E6F5771097595771F4F
:10304000880B990B5FDE28E132E741E35FE349D06B
:10305000AF2D9801AE01FF900F911F91CF91DF919D
:1030600094DDA2CEFA01DC01AA0FBB1F9B01AC01CB
:10307000BF5728F422273327442750781FC0B75161
:1030800088F4AB2F0024469537952795011CA3950E
:10309000D2F3002069F0220F331F441FB395DAF3F7
:1030A0000DD061CD61307105A0E88A07B94630F4D2
:1030B0009B01AC016627772788279078309621F00E
:1030C000208331834283538308950BD06DCE5EDE1F
:1030D00028F063DE18F0952309F04FCE54CE11246A
:1030E00097CE73DEA0F3959FD1F3950F50E0551F57
:1030F000629FF001729FBB27F00DB11D639FAA274D
:10310000F00DB11DAA1F649F6627B00DA11D661F9B
:10311000829F2227B00DA11D621F739FB00DA11DBC
:10312000621F839FA00D611D221F749F3327A00D76
:10313000611D231F849F600D211D822F762F6A2F12
:1031400011249F5750408AF0E1F088234AF0EE0F97
:10315000FF1FBB1F661F771F881F91505040A9F7A4
:103160009E3F510570F009CE53CE5F3FECF3983E81
:10317000DCF3869577956795B795F795E7959F5F0B
:10318000C1F7FE2B880F911D9695879597F90895A5
:103190009F3F31F0915020F4879577956795B795CB
:1031A000880F911D9695879597F90895EF920F9343
:1031B0001F93CF93DF93E80147FF02C034E101C0C2
:1031C00034E0E42FFF27E7FDF095F7FF03C0F1950A
:1031D000E195F109E32E022F2E2FAE010E94871BED
:1031E000CE01DF91CF911F910F91EF90089545325D
:1031F000510520F4423010F00C940219FB011082AA
:10320000CB010895BB274A3031F4992322F4BDE263
:10321000909581959F4F0C943F19BB272A3051F40C
:10322000992342F4BDE290958095709561957F4F0A
:103230008F4F9F4F0C941D19BB27FA01A62F6217C1
:10324000710581059105330B30FB66F0AA27660FE7
:10325000771F881F991FAA1FA21710F0A21B639542
:103260003850A9F7A05DAA3308F0A95DA19336F7FD
:10327000B111B1931082CA010C94F31DBB27FB015D
:103280005527AA27880F991FAA1FA41710F0A41B5F
:1032900083955051B9F7A05DAA3308F0A95DA193B9
:1032A000009779F7B111B1931192CB010C94F31DF2
:1032B000AEE0B0E0EEE5F9E10C94A11E0D891E89A7
:1032C00086E08C831A8309838FEF9FE79E838D832B
:1032D000AE01475E5F4F6F89788DCE0101960E94E7
:1032E0007A19EF81F885E00FF11F10822E96E4E045
:1032F0000C94BD1EACE0B0E0E0E8F9E10C94931E44
:103300007C016B018A01FC0117821682838181FF97
:10331000BDC1CE0101964C01F7019381F60193FDE9
:10332000859193FF81916F01882309F4ABC18532A8
:1033300039F493FD859193FF81916F01853229F4D2
:10334000B70190E00E94031EE7CF512C312C20E002
:103350002032A0F48B3269F030F4803259F083329D
:1033600069F420612CC08D3239F0803339F421604A
:1033700026C02260246023C0286021C027FD27C00A
:1033800030ED380F3A3078F426FF06C0FAE05F9E41
:10339000300D1124532E13C08AE0389E300D1124B5
:1033A000332E20620CC08E3221F426FD6BC12064C6
:1033B00006C08C3611F4206802C0883641F4F6014C
:1033C00093FD859193FF81916F018111C1CF982F5A
:1033D0009F7D9554933028F40C5F1F4FFFE3F983D2
:1033E0000DC0833631F0833771F0833509F05BC04F
:1033F00022C0F801808189830E5F1F4F44244394CB
:10340000512C540115C03801F2E06F0E711CF80107
:10341000A080B18026FF03C0652D70E002C06FEF71
:103420007FEFC5012C870E94E81D2C0183012C85AC
:103430002F77222E17C03801F2E06F0E711CF801B1
:10344000A080B18026FF03C0652D70E002C06FEF41
:103450007FEFC5012C870E94DD1D2C012C85206883
:10346000222E830123FC1BC0832D90E048165906B1
:10347000B0F4B70180E290E00E94031E3A94F4CFCA
:10348000F50127FC859127FE81915F01B70190E04E
:103490000E94031E31103A94F1E04F1A5108411472
:1034A000510471F7E5C0843611F0893639F5F80119
:1034B00027FF07C060817181828193810C5F1F4F5C
:1034C00008C060817181882777FD8095982F0E5FF5
:1034D0001F4F2F76B22E97FF09C09095809570955B
:1034E00061957F4F8F4F9F4F2068B22E2AE030E0CA
:1034F000A4010E94351EA82EA81844C0853729F4BF
:103500002F7EB22E2AE030E025C0F22FF97FBF2EA9
:103510008F36C1F018F4883579F0B4C0803719F0CF
:10352000883721F0AFC02F2F2061B22EB4FE0DC01E
:103530008B2D8460B82E09C024FF0AC09F2F96608F
:10354000B92E06C028E030E005C020E130E002C01E
:1035500020E132E0F801B7FE07C06081718182810D
:1035600093810C5F1F4F06C06081718180E090E005
:103570000E5F1F4FA4010E94351EA82EA818FB2D18
:10358000FF77BF2EB6FE0BC02B2D2E7FA51450F457
:10359000B4FE0AC0B2FC08C02B2D2E7E05C07A2CCA
:1035A0002B2D03C07A2C01C0752C24FF0DC0FE0109
:1035B000EA0DF11D8081803311F4297E09C022FFBC
:1035C00006C07394739404C0822F867809F07394B4
:1035D00023FD13C020FF06C05A2C731418F4530C9B
:1035E0005718732C731468F4B70180E290E02C87AD
:1035F0000E94031E73942C85F5CF731410F43718B2
:1036000001C0312C24FF12C0B70180E390E02C8769
:103610000E94031E2C8522FF17C021FF03C088E5EE
:1036200090E002C088E790E0B7010CC0822F867856
:1036300059F021FD02C080E201C08BE227FD8DE23E
:10364000B70190E00E94031EA51438F4B70180E38F
:1036500090E00E94031E5A94F7CFAA94F401EA0D59
:10366000F11D8081B70190E00E94031EA110F5CFEB
:10367000332009F451CEB70180E290E00E94031E8E
:103680003A94F6CFF7018681978102C08FEF9FEFC2
:103690002C96E2E10C94AF1EDC01CB01FC01F99900
:1036A000FECF06C0F2BDE1BDF89A319600B40D928E
:1036B00041505040B8F70895F999FECF92BD81BDB1
:1036C000F89A992780B50895A8E1B0E042E050E06B
:1036D0000C944E1BDC01CB0103C02D910E94751B85
:1036E00041505040D0F70895262FF999FECF1FBAC8
:1036F00092BD81BD20BD0FB6F894FA9AF99A0FBE1B
:10370000019608950E94741B272F0C94751B6F92CD
:103710007F929F92AF92BF92CF92DF92EF92FF92F1
:103720000F931F93CF93DF93CDB7DEB729970FB6D3
:10373000F894DEBF0FBECDBF6A01B22E102F0C333E
:1037400020F4FF24F394F00E02C04CE3F42E0F2D6E
:1037500027E0AE014F5F5F4F0E94051D7981272F43
:103760002970213031F0E1FC06C0E0FC06C060E0C9
:1037700005C06DE203C06BE201C060E2AE2DA07136
:1037800073FF36C0662311F084E001C083E08B151F
:1037900010F4B81A01C0B12CA1110BC0F6018B2D89
:1037A00090E2882319F091938150FBCFCB0CD11C70
:1037B000B12C662331F0F601608396012F5F3F4FF5
:1037C0006901C6010396E2FE05C02EE4F6012083DE
:1037D00031E404C02EE6F601208331E631832283F2
:1037E000FC012B2D30E22223F1F131932150FBCF4C
:1037F00072FF40C0662311F084E001C083E08B15A6
:1038000010F4B81A01C0B12CA1110BC0F6018B2D18
:1038100090E2882319F091938150FBCFCB0CD11CFF
:10382000B12C662331F0F601608396012F5F3F4F84
:103830006901C6010396E2FE07C029E4F601208370
:103840002EE4218326E406C029E6F60120832EE635
:10385000218326E62283FC012B2D30E2222319F05E
:1038600031932150FBCFFC01EB0DF11D10828EEF47
:103870009FEFB7C0B1E0611101C0B0E04B2F50E045
:103880001816190624F49C012F5F3F4F02C021E057
:1038900030E0240F351F112329F0412F50E04F5FF6
:1038A0005F4F02C040E050E0420F531F2B2D30E02D
:1038B0004217530714F4B41A01C0B12C2E2D2871ED
:1038C00059F4F6012B2D30E2222319F031932150C7
:1038D000FBCFCB0CD11CB12CBB2331F0F6016083A4
:1038E00096012F5F3F4F6901A1110BC0F6012B2DEF
:1038F00030E3222319F031932150FBCFCB0CD11CA4
:10390000B12CF80E0A81372F3071A32E74FF03C03B
:10391000013309F4FA941F142CF42F2D293018F0D8
:1039200028E001C021E0682F392F97FF02C060E036
:1039300030E0462F532F612C712C3EE2932EBC01B8
:10394000621B71099B01DC01A41BB50BE1E0F0E0F7
:10395000EC0FFD1FAE0FBF1FE12EF12CF194E1948F
:10396000F1084F3FFFEF5F0731F4F6019082B60197
:103970006F5F7F4F6B01841795074CF02417350755
:1039800034F4BD01660D771DFB01118101C010E308
:1039900041505109FFEF6F1A7F0AB6016F5F7F4FE9
:1039A0004E155F0524F0F60110836B01DACF48173E
:1039B000590739F4063320F4053319F4A11001C076
:1039C00011E3F6011083FB018B2D90E2882319F09F
:1039D00091938150FBCFFB01EB0DF11D108280E034
:1039E00090E029960FB6F894DEBF0FBECDBFDF91F1
:1039F000CF911F910F91FF90EF90DF90CF90BF90EC
:103A0000AF909F907F906F900895283008F027E046
:103A10003327DA01990F311D87FD9160009661050A
:103A2000710539F432602E5F3D9330E32A95E1F75A
:103A300008959F3F30F080387105610509F03C5FC3
:103A40003C5F3D93913008F08068911DDF93CF93E8
:103A50001F930F93FF92EF92192F987F9695E92F5E
:103A600096959695E90FFF27EA59FC4F992733273A
:103A7000EE24FF24A701E70105900894079428F499
:103A8000360FE71EF81E491F511D660F771F881F4E
:103A9000991F0694A1F70590079428F4E70EF81EE5
:103AA000491F561FC11D770F881F991F661F069457
:103AB000A1F70590079428F4F80E491F561FC71F59
:103AC000D11D880F991F661F771F0694A1F70590D7
:103AD000079420F4490F561FC71FD81F990F661F60
:103AE000771F881F0694A9F784911095177041F0ED
:103AF000D695C79557954795F794E7941A95C1F7CA
:103B0000ECE0F3E0689415901591359165919591ED
:103B100005907FE27395E118F10A430B560BC90B30
:103B2000D009C0F7E10CF11E431F561FC91FD01D5D
:103B30007EF4703311F48A95E6CFE894015030F0AA
:103B4000080F0AF40027021708F4202F2395022FEC
:103B50007A3328F079E37D932A95E9F710C07D93B5
:103B60002A9589F606949795679537951795179432
:103B7000E118F10A430B560BC90BD00998F02395B5
:103B80007E9173957A3308F070E37C932013B8F735
:103B90007E9170617D9330F0839571E37D9370E346
:103BA0002A95E1F71124EF90FF900F911F91CF918B
:103BB000DF91992787FD90950895FC01059061504C
:103BC00070400110D8F7809590958E0F9F1F089533
:103BD000FC016150704001900110D8F780959095DC
:103BE0008E0F9F1F0895DC01FC01672F71917723D1
:103BF000E1F7329704C07C916D9370836291AE17A8
:103C0000BF07C8F308950F931F93CF93DF93182F27
:103C1000092FEB018B8181FD03C08FEF9FEF20C047
:103C200082FF10C04E815F812C813D814217530776
:103C30007CF4E881F9819F012F5F3F4F398328830E
:103C4000108306C0E885F985812F0995892B29F70E
:103C50002E813F812F5F3F4F3F832E83812F902FF7
:103C6000DF91CF911F910F910895FA01AA27283073
:103C700051F1203181F1E8946F936E7F6E5F7F4F39
:103C80008F4F9F4FAF4FB1E03ED0B4E03CD0670FB5
:103C9000781F891F9A1FA11D680F791F8A1F911D08
:103CA000A11D6A0F711D811D911DA11D20D009F458
:103CB00068943F912AE0269F11243019305D31939A
:103CC000DEF6CF010895462F4770405D4193B3E083
:103CD0000FD0C9F7F6CF462F4F70405D4A3318F02A
:103CE000495D31FD4052419302D0A9F7EACFB4E0DB
:103CF000A6959795879577956795BA95C9F7009793
:103D00006105710508959B01AC010A2E0694579533
:103D1000479537952795BA95C9F7620F731F841F8A
:103D2000951FA01D08952F923F924F925F926F9220
:103D30007F928F929F92AF92BF92CF92DF92EF923B
:103D4000FF920F931F93CF93DF93CDB7DEB7CA1BBC
:103D5000DB0B0FB6F894DEBF0FBECDBF09942A88E7
:103D6000398848885F846E847D848C849B84AA848F
:103D7000B984C884DF80EE80FD800C811B81AA811C
:103D8000B981CE0FD11D0FB6F894DEBF0FBECDBFE7
:083D9000ED010895F894FFCF46
:103D980000001F003B005A0078009700B500D400CF
:103DA800F300110130014E016D0101030406090BF6
:103DB8000C0E25303269234F757420252B30346959
:103DC8002E2563C60A0025303269234F75742025D5
:103DD8002B3034692E2563C50A0025303269234FFC
:103DE800757420252B3034692E2563C70A002530C9
:103DF800326923506D7057252B3034692E25630A9C
:103E0800002530326923436C6C72252B3034692EBF
:103E180025630A002530326923426C6572252B30F0
:103E280034692E25630A0074656D70657261747556
:103E380072653A2000204320646567000D0A00700F
:103E4800726573737572652020203A202020002047
:103E5800506100616C7469747564652020203A2093
:103E680000204D2061626F76652073656100252B07
:103E78003034692E25633B00253469730025346985
:083E8800003078253034780089
:00000001FF
