:100000000C940E020C942B020C942B020C942B02D9
:100010000C942B020C942B020C942B020C942B02AC
:100020000C942B020C942B020C942B020C942D029A
:100030000C942B020C942B020C942B020C942B028C
:100040000C942B020C942B020C945F090C948D09D8
:100050000C942B020C942B020C942B020C942B026C
:100060000C942B020C942B0207634236B79BD8A743
:100070001A39685618AEBAAB558C1D3CB7CC5763CD
:10008000BD6DEDFD753EF6177231BF000000803F7B
:1000900008000000BE922449123EABAAAA2ABECD97
:1000A000CCCC4C3E00000080BEABAAAAAA3E000009
:1000B0000000BF000000803F000000000008417801
:1000C000D3BB4387D1133D190E3CC3BD4282AD2B38
:1000D0003E68EC8276BED98FE1A93E4C80EFFFBE30
:1000E00001C4FF7F3F00000000003F3A003138426A
:1000F0003A003138533A0020202020202020002FC1
:100100004275730044737000283F2900283138423B
:10011000290028313853290020534E3A00204352F9
:10012000433A0046433A005374617274206D65612E
:10013000732E206661696C0D000D0068506100200F
:1001400020202020202020202020200020202020CF
:1001500020202020202020200020202020202020BF
:100160002020202020000D00435243206661696C4E
:100170006564202D2069676E6F72696E67207365F4
:100180006E736F723A2000427573204572726F72FF
:100190000D00427573204572726F72004E6F206FB2
:1001A000772053656E736F727320666F756E640D82
:1001B000004E6F206F772053656E736F72732066E9
:1001C0006F756E64004C4344206272696768746E98
:1001D0006573730A004C6F6767696E6720696E7498
:1001E000657276616C0A00315769726520646973C3
:1001F000706C6179206F72646572007772697465E2
:1002000020746F20454550524F4D000D0D000D00DC
:10021000203D2000445331384232300044533138BD
:100220005332302F4453313832300020697320610B
:100230002000202F204275730053656E736F72206B
:10024000446973706C6179000D0D00707265737391
:10025000204D4F444520746F206F746865720020F4
:10026000746F2073746172740A0A00206F72200028
:100270005374617274204C6F6767696E673F0A0040
:1002800020445331385832302053656E736F7228D2
:10029000732920617661696C61626C650D00205381
:1002A000656E736F72287329004E6F2053656E73ED
:1002B0006F727320466F756E64004E6F204453203A
:1002C00053656E736F727320466F756E64002020E5
:1002D00020424D50313830204C6F676765720044C2
:1002E000533138783230204C6F6767657220763131
:1002F0002E32310D004453313832302C424D5031C2
:100300003830204C6F676765722076312E32310DA0
:100310000004040404151F0E04040E1F1504040435
:100320000400407A10F35A00A0724E18090010A57C
:10033000D4E80000E87648170000E40B54020000FF
:10034000CA9A3B000000E1F5050000809698000085
:100350000040420F000000A08601000000102700AE
:10036000000000E803000000006400000000000A34
:1003700000000000000100000000002C76D888DC9E
:10038000674F0823DFC1DFAE59E1B1B796E5E3E47B
:1003900053C63AE651997696E8E6C28426EB898CF4
:1003A0009B62ED407C6FFCEFBC9C9F40F2BAA56F56
:1003B000A5F490055A2AF75C936B6CF9676DC11B25
:1003C000FCE0E40D47FEF520E6B500D0ED902E03ED
:1003D00000943577050080841E080000204E0A0036
:1003E0000000C80C333333330F986E12831141EF82
:1003F0008D2114893BE65516CFFEE6DB18D1844BE0
:10040000381BF77C1D901DA4BBE424203284725E4F
:10041000228100C9F124ECA1E53D270011241FBE73
:10042000CFEFD4E0DEBFCDBF11E0A0E0B1E0E6EB5E
:10043000FDE302C005900D92AE3EB107D9F723E06F
:10044000AEEEB1E001C01D92AF34B207E1F70E94F9
:10045000CC0F0C94D91E0C9400001F920F920FB673
:100460000F9211248F939F93AF93BF938091EE01CE
:100470008F5F8093EE01883C10F18091EF019091A5
:10048000F00101969093F0018093EF011092EE013C
:100490008091F501811113C08091F1019091F201D9
:1004A000A091F301B091F4010196A11DB11D8093BB
:1004B000F1019093F201A093F301B093F401BF9185
:1004C000AF919F918F910F900FBE0F901F90189535
:1004D000CF92DF92EF92FF920F931F93CF93DF9310
:1004E000CDB7DEB728970FB6F894DEBF0FBECDBFED
:1004F000D12CCC24CA947E0189E0E80EF11C40EF97
:10050000BE016F5F7F4F8C2D0E948908C82EEEEFD1
:100510008E130BC061E080E00E949F0781EB91E0A9
:100520000E94E4078CE991E00DC0FDEF8F130DC030
:1005300061E080E00E949F0782E991E00E94E40769
:1005400087E891E00E940F0A63C068E0CE0101963F
:100550000E941106811143C089818F77883211F082
:100560008031B1F4FE01319688E0D89EA0011124BB
:100570004D505D4F20E030E08191DA01A20FB31FB2
:100580008C932F5F3F4F28303105B1F7D3943AC099
:100590008432C1F5FE013196A9EBB2E081918D93D1
:1005A000EE15FF05D9F7AE014F5F5F4F61EF71E0C8
:1005B00085EF91E00E94780A811124C04091F101F9
:1005C0005091F2016091F3017091F4018091F50175
:1005D0009E012F5F3F4F8C600E944C0A13C088E63B
:1005E00091E00E940F0A8E010F5F1F4FF801819169
:1005F0008F010E94420A0E151F05C1F786E691E0A1
:100600000E940F0ACC2021F0F7E0FD1508F077CF0B
:100610008D2D28960FB6F894DEBF0FBECDBFDF91AB
:10062000CF911F910F91FF90EF90DF90CF900895A1
:10063000CF92DF92EF92FF920F931F93CF93DF93AE
:10064000C82EC62F0E94B5070C2F10E0F801E1520A
:10065000FD4FE081409135035091360320918F0288
:1006600030919002F0E04217530774F5241B350BCC
:100670002B3031050CF458C0EE0FFF1FEB5CFC4F24
:10068000808191816AE070E00E943715C0969F9347
:100690008F937F936F931F92CF9382E291E09F930A
:1006A0008F9382EA92E09F938F930E94671982EA68
:1006B00092E00E94D8078DB79EB70A960FB6F894BD
:1006C0009EBF0FBE8DBF57C0241735076CF5421B68
:1006D000530B4B30510544F1EE0FFF1FEB5CFC4F09
:1006E000808191816AE070E00E943715C0969F93E7
:1006F0008F937F936F931F92CF9384E391E09F93A7
:100700008F9382EA92E09F938F930E94671982EA07
:1007100092E00E94D8078DB79EB70A960FB6F8945C
:100720009EBF0FBE8DBF27C0EE0FFF1FEB5CFC4FBF
:10073000808191816AE070E00E943715C0969F9396
:100740008F937F936F931F92CF9386E491E09F9353
:100750008F9382EA92E09F938F930E94671982EAB7
:1007600092E00E94D8078DB79EB70A960FB6F8940C
:100770009EBF0FBE8DBF809135039091360390933D
:10078000900280938F0298012F5F3F4FD12C2C1540
:100790003D050CF090C0F901E152FD4FE081F0E021
:1007A000EE0FFF1FEB5CFC4F808191815AE0E52E3C
:1007B000F12CB7010E943715C0969F938F937F93BA
:1007C0006F933F932F9388E591E09F938F93C2EAB5
:1007D000D2E0DF93CF930E946719CE010E94D80721
:1007E00098012E5F3F4F8DB79EB70A960FB6F894CB
:1007F0009EBF0FBE8DBF2C153D050CF059C0F901F1
:10080000E152FD4FE081F0E0EE0FFF1FEB5CFC4F8B
:1008100080819181B7010E943715C0969F938F9375
:100820007F936F933F932F9389E691E09F938F93EC
:10083000DF93CF930E946719CE010E94D8070D5F06
:100840001F4F8DB79EB70A960FB6F8949EBF0FBE86
:100850008DBF0C151D054CF5F801E152FD4FE081EF
:10086000F0E0EE0FFF1FEB5CFC4F80819181B70140
:100870000E943715C0969F938F937F936F931F931A
:100880000F938AE791E09F938F93DF93CF930E941A
:100890006719CE010E94D8078DB79EB70A960FB68A
:1008A000F8949EBF0FBE8DBF0AC089E591E005C0D8
:1008B0008CE491E002C08FE391E00E94E4070E9483
:1008C000E30E6093E7027093E8028093E90290934D
:1008D000EA0205E413E022E04AE00E94E5188BE812
:1008E00091E00E94030AC8010E94030A89E991E08D
:1008F0000E94030A80EA91E00E94030A0E94010F0D
:100900006093C7027093C8028093C9029093CA0291
:100910002AE0A8010E941C1983EA91E00E94030AC0
:10092000C8010E94030A84EB91E00E94030A80EA56
:1009300091E00E94030A62E081E10E949F078BE33D
:1009400091E00E94E40762E08DE00E949F076091C1
:10095000C7027091C8028091C9029091CA0224E630
:1009600030E040E050E00E946D15CA01B9012AE074
:10097000A8010E941C19C8010E94D8070E94100FEC
:100980006093E7027093E8028093E9029093EA0291
:1009900022E04AE00E94E51888EB91E00E94030AF9
:1009A000C8010E94030A86EC91E00E94030A80EAD3
:1009B00091E00E94030A64E87BE28AE090E0DF9124
:1009C000CF911F910F91FF90EF90DF90CF900C94FB
:1009D0003D069F92AF92BF92CF92DF92EF92FF922D
:1009E0000F931F93CF93DF93982E83E20E94EE091B
:1009F000CFEDCC2EC2E0DC2EE6011AE0A12EB12C08
:100A000003ED11E082EAE82E82E0F82E8C2F8C199B
:100A1000891528F5E991F0E0EE0FFF1FEB5CFC4F24
:100A200080819181B5010E9437159C01205D3F4F67
:100A30003F932F937F936F931F930F93FF92EF92A8
:100A40000E94671982EA92E00E94030A8DB79EB75E
:100A500008960FB6F8949EBF0FBE8DBFD7CF89E31F
:100A600091E0DF91CF911F910F91FF90EF90DF9078
:100A7000CF90BF90AF909F900C940F0AEF92FF928F
:100A80000F931F93CF93DF93E82E80E090E00E94B6
:100A90004A06882321F0E5E3F3E090E011C0C3EFBC
:100AA000D2E005E313E0F12CFE14D1F0CE010E9458
:100AB000A206F801819391938F01F3942896F4CFC5
:100AC0009E1521F0119211929F5FFACF87E291E07B
:100AD000DF91CF911F910F91FF90EF900C940F0A2F
:100AE000DF91CF911F910F91FF90EF900895EF92BA
:100AF000FF920F931F93CF93DF937C018C01C0E093
:100B0000D0E0209719F483E291E00BC0C730D10503
:100B100019F48DE191E005C0C130D10521F488E1DF
:100B200091E00E940F0AF80181918F010E94420A10
:100B3000209789F4F70180818F77803119F482E161
:100B400091E007C0883219F48CE091E002C088E09F
:100B500091E00E940F0A2196C830D10591F6DF91ED
:100B6000CF911F910F91FF90EF9008950F931F93D6
:100B7000CF93DF93C82FE82FF0E0E152FD4F0081C3
:100B800060E080E00E949F0784E091E00E94E4071B
:100B900080E38C0F0E94B8078FEF90E00E94E4077B
:100BA00080E3800F0E94B80787EF90E00E94E4077F
:100BB00061E080E00E949F0710E0F80123E0EE0F63
:100BC000FF1F2A95E1F7ED50FD4F8081982F9F7709
:100BD000903171F482EF90E00E94E40793E0000FFF
:100BE000111F9A95E1F70D501D4FC0E0D0E00AC0EB
:100BF000983219F48DEE90E0EFCF0E94FB078AEE59
:100C000090E0EACFF801EC0FFD1F81810E94FB0705
:100C10002196C630D105B1F7DF91CF911F910F9189
:100C20000895FC0140E070E058E19F01281B390B5A
:100C30002617370778F4319128E0A32FA427A0FDC9
:100C400002C0469503C04527469540683695215019
:100C5000A1F7EBCF842F0895FC01680F791F80E086
:100C6000E617F70741F0219198E0822781702695D9
:100C70009150D9F7F5CF90E00895DC01CB018115B3
:100C80009105A105B10529F081509040A040B040E8
:100C9000D9F70895BC0184E40E946008811108C05E
:100CA00066E471E48FE090E00E943D0680E00895E4
:100CB0008FEF0895DF92EF92FF920F931F93CF93E0
:100CC000DF93CDB7DEB72A970FB6F894DEBF0FBE1D
:100CD000CDBF009719F48FE097E226C0BC018EEBE0
:100CE0000E9460088111F7CF8E010F5F1F4F7E01B8
:100CF0008AE0E80EF11CD02E912F8FEF9A870E9488
:100D00003808F80181938F019A85EE15FF05A9F740
:100D100069E08D2D0E9411068111DDCF8A8190E05E
:100D2000982F88272981822B2A960FB6F894DEBF48
:100D30000FBECDBFDF91CF911F910F91FF90EF902C
:100D4000DF900895BF92CF92DF92EF92FF920F93C0
:100D50001F93CF93DF93CDB7DEB762970FB6F894AA
:100D6000DEBF0FBECDBF7C0188E0EAE1F1E0DE012D
:100D70001A9601900D928A95E1F7E114F10419F4A5
:100D80008FE097E273C0B7018EEB0E94600881117B
:100D9000F7CF8E010F5F1F4F6E014AE0C40ED11CCA
:100DA000B02E912F8FEF9A8B0E943808F801819313
:100DB0008F019A89EC15FD05A9F769E08B2D0E943A
:100DC00011068111DDCF29818A8130E0382BF701AE
:100DD00040814F77403171F4C9018E7F53E0880F15
:100DE000991F5A95E1F75F812CE030E0251B31090E
:100DF000280F391F37FF05C0319521953109A1E032
:100E000001C0A0E0483271F48D81982F9076903621
:100E100049F086FF02C02E7F05C085FF02C02C7FEF
:100E200001C0287FC90144E0969587954A95E1F76E
:100E30002F703327A1110FC0F601AE014E5E5F4F38
:100E4000619170E02617370719F42F5F3F4F03C0F9
:100E5000E417F507A9F7FAE08F9F200D311D112443
:100E6000AA2319F0319521953109C90162960FB66F
:100E7000F894DEBF0FBECDBFDF91CF911F910F91D0
:100E8000FF90EF90DF90CF90BF9008952E9A00C012
:100E90002E9808951F93CF93DF931F92CDB7DEB79F
:100EA000662311F02C9A01C02C982D9894B19F6064
:100EB00094B915B1107F982F92959F70912B95B989
:100EC00089830E94460789818F70812B85B90E9492
:100ED00046071F6015B90F90DF91CF911F910895BC
:100EE0002C982D9A84B1807F84B92E9A00C083B14A
:100EF0002E9800C02E9A00C093B19F708295807F7B
:100F00002E98892B08950E94700787FDFCCF84E0FE
:100F100090E00197F1F70C947007CF93C82F0E94CF
:100F2000830760E08C2FCF910C944A07CF93C82F92
:100F30000E94830761E08C2FCF910C944A076111C6
:100F400002C0805809C0613011F4805405C062307D
:100F500011F48C5601C08C520C948D070E948307AB
:100F600090E0089581E00C948D0782E00C948D0749
:100F7000CF93C82F0E948307982FCA30A1F48431E1
:100F800048F080EC890F843138F094519C3230F471
:100F900084E505C080E403C084E101C080E080589E
:100FA000CF910C948D0761E08C2FCF910C944A0760
:100FB000CF93DF93EC018991882319F00E94B80741
:100FC000FACFDF91CF910895CF93DF93FC01849105
:100FD000EF012196882321F00E94B807FE01F7CF88
:100FE000DF91CF9108958F708A3010F0895C01C035
:100FF000805D0C94B807CF93C82F82958F700E94A4
:10100000F3078C2FCF910C94F307CF93C82F94B193
:101010009F6794B9E0E0FDE73197F1F7299A289AA4
:101020000E944607E0E0F7E23197F1F70E94460799
:10103000E0E8F0E03197F1F70E944607E0E8F0E0E1
:101040003197F1F728980E944607E0E8F0E03197E1
:10105000F1F788E20E948D0788E00E948D070E94C8
:10106000B20786E00E948D078C2FCF910C948D07DC
:10107000EF92FF920F931F93CF93DF93E82EC0E080
:10108000D0E0F12C01E010E0C8010C2E01C0880F67
:101090000A94EAF78E210E940E09282F0C2E01C017
:1010A000220F0A94EAF7F22A2196C830D10561F797
:1010B0008F2DDF91CF911F910F91FF90EF900895A9
:1010C000FF920F931F93CF93DF93F82EEB010E94B3
:1010D000EC088823B9F0209769F085E50E9438086C
:1010E0008E01085F1F4F89910E943808C017D107F1
:1010F000D1F703C08CEC0E9438088F2D0E9438086D
:1011000080E001C08FEFDF91CF911F910F91FF9091
:101110000895AF92BF92DF92EF92FF920F931F93C9
:10112000CF93DF931F92CDB7DEB7E82E5B014983E3
:101130000E94EC0849818823A9F1842F0E94380875
:10114000F12C10E488EFD82ED10E81E00E940E0918
:10115000082F81E00E940E09882319F0002369F00E
:1011600023C001110AC01E1530F0F501808180FFF7
:1011700004C0E11611F0F12E01E0802F0E940E094B
:10118000F50190819695002311F09068F501908308
:1011900011501D11DACFFFEFAF1ABF0A1111D2CFD4
:1011A0008F2D03C08EEF01C08DEF0F90DF91CF9197
:1011B0001F910F91FF90EF90DF90BF90AF90089537
:1011C0008115910511F00197F1F7089556985E98F1
:1011D0008FEB93E00C94E008CF93DF93569A5E98E0
:1011E00087ED93E00E94E008DFB7F89456985E9888
:1011F0008BE890E00E94E008C9B1DFBF83E393E091
:101200000E94E00899B1C6FB882780F9809596FB7B
:10121000992790F98923DF91CF910895CF93DF9398
:10122000DFB7F894569A5E980000000000000000B6
:1012300000000000000000000000000000000000AE
:10124000000000000000000000000000000000009E
:10125000000000000000000000000000000000008E
:10126000000000000000000000000000000000007E
:10127000811156985E9881E090E00E94E008C9B123
:1012800083E590E00E94E00856985E980000000018
:10129000000000000000000000000000000000004E
:1012A000000000000000000000000000000000003E
:1012B000DFBFC6FB882780F9DF91CF9108951F9289
:1012C0000F920FB60F9211242F938F939F93EF934A
:1012D000FF938091C0009091C6008C71E091F8015D
:1012E000EF5FEF712091F701E21739F0E093F80119
:1012F000F0E0E550FE4F908301C082E09091F6014E
:10130000982B9093F601FF91EF919F918F912F91E0
:101310000F900FBE0F901F9018951F920F920FB64F
:101320000F9211248F939F93EF93FF939091FA0163
:101330008091F901981769F0E091F901EF5FEF7181
:10134000E093F901F0E0E55EFD4F80818093C600F7
:1013500005C08091C1008F7D8093C100FF91EF9106
:101360009F918F910F900FBE0F901F901895109224
:10137000FA011092F9011092F8011092F70197FF0B
:1013800003C022E02093C00090789093C500809322
:10139000C40088E98093C10086E08093C20008956C
:1013A0009091F8018091F7019817A9F09091F701B9
:1013B0009F5F9F71E92FF0E0E550FE4F2081809103
:1013C000F6019093F7011092F60190E0982F88278C
:1013D000820F911D089580E091E008959091FA01A7
:1013E0009F5F9F712091F9019217E1F3E92FF0E0DF
:1013F000E55EFD4F80839093FA018091C100806289
:101400008093C1000895CF93DF93EC0189918823E5
:1014100019F00E94EE09FACFDF91CF910895CF9392
:10142000DF93FC018491EF012196882321F00E9433
:10143000EE09FE01F7CFDF91CF910895CF93DF93AF
:10144000CDB7DEB761970FB6F894DEBF0FBECDBF44
:101450004AE050E0BE016F5F7F4F0E9406190E9474
:10146000030A61960FB6F894DEBF0FBECDBFDF91C1
:10147000CF9108958F708A3010F0895C01C0805D33
:101480000C94EE09CF93C82F82958F700E943A0A70
:101490008C2FCF910C943A0AFF920F931F93CF9306
:1014A000DF93F82E8A01D62FC72F2115310511F4AD
:1014B0008FEF18C0B90189E90E9460088111F8CF47
:1014C0008F2D0E943808802F0E943808812F0E949B
:1014D00038088D2F0E9438088C2F0E9438080E94EF
:1014E000EC0880E0DF91CF911F910F91FF9008955C
:1014F000CF92DF92EF92FF92CF93DF937C01EB01CB
:101500004115510511F48FEF31C0BA0186E60E94F2
:1015100060088111F8CF8FEF0E943808F7018083AF
:101520008FEF0E943808C82ED12CE12CF12CC882F4
:10153000D982EA82FB828FEF0E943808D82AC882BB
:10154000D982EA82FB828FEF0E943808E82AC8829B
:10155000D982EA82FB828FEF0E943808F82AC8827B
:10156000D982EA82FB820E94EC0880E0DF91CF9171
:10157000FF90EF90DF90CF900895CF92DF92EF929F
:10158000FF92CF93DF93FC01C0812C2F30E0D181FB
:10159000828190E00197AD2FB0E0AA0FBB1FA05051
:1015A000BF4F4D915C91840F951FD901A654B1098D
:1015B0006DE671E0A69FA001A79F500DB69F500D4C
:1015C0001124840F951F2554310937FF02C02D5F68
:1015D0003F4F3595279535952795280F391FD230E0
:1015E00020F0C37011F42F5F3F4FA8E1B0E00E94DC
:1015F0008C159B01AC018381280F311D411D511DAC
:10160000A0E1BEE00E949B156B017C01248130E0CB
:10161000ACE3B0E00E948C152581620F711D811D25
:10162000911D6C0D7D1D8E1D9F1DDF91CF91FF9033
:10163000EF90DF90CF9008958F929F92AF92BF92DC
:10164000CF92DF92EF92FF920F931F93CF93DF938E
:10165000162FEA016CE3C62ED12CE12CF12C612F60
:10166000A70196010E944B15022FCA017CE3B72EF9
:10167000B29E101911241D83622F732FA7019601AA
:101680000E944B15122FCA01B29E001911240C831F
:10169000622F732F28E130E040E050E00E944B15AC
:1016A00088E1289F101911241B8369017A018BEDB1
:1016B000C80E82E0D81EE11CF11CC701B60125EB63
:1016C00035E040E050E00E944B154B015C01890180
:1016D0008CE38816910410F00F5F1F4FC701B6010D
:1016E000601B710B810991092DE631E040E050E06B
:1016F0000E944B156DE671E0629FC001639F900DE3
:10170000729F900D1124C81AD90AC01AD10A8CE30D
:10171000881A910882E3881681E0980618F48FEF02
:10172000C81AD80A44E4420F4883EAE1F1E08EE6A1
:1017300091E02DE030E04370C816D90658F42150EE
:1017400031099291829122303105B0F34111F4CFE9
:101750000196F2CF2983C394C81ACA82DF91CF9130
:101760001F910F91FF90EF90DF90CF90BF90AF90BF
:101770009F908F9008951F93CF93DF931F92CDB7C3
:10178000DEB7182F8EEE69830E94760F812F0E949C
:10179000A70F6981862F0E94A70F0F90DF91CF912D
:1017A0001F910C949F0FAF92BF92DF92EF92FF9226
:1017B0000F931F93CF93DF9300D0CDB7DEB7182FD1
:1017C000D42E8EEE69837A830E94760F812F0E9439
:1017D000A70F8FEE0E949D0F6981A62E7A81B72EEA
:1017E00000E010E0ED2CF12C81E0E81AF1080D1575
:1017F00080F40E151F0519F40E94C20F02C00E944A
:10180000B80FF50180830F5F1F4FFFEFAF1ABF0ABC
:10181000EECF0F900F90DF91CF911F910F91FF901E
:10182000EF90DF90BF90AF900C949F0F0F931F939A
:10183000EBE3F2E004811581268137810193119356
:101840002193319322E0EF38F207A1F760938B02E6
:1018500070938C0280938D0290938E02EBE3F2E002
:1018600060E070E0CB010191119121913191600F05
:10187000711F821F931F22E0EF38F207A1F725E1C5
:1018800030E040E050E00E946D15CA01B9011F919F
:101890000F910895CF93DF9300D0CDB7DEB71A82B2
:1018A000198242E0BE016F5F7F4F8AEA0E94D30B2C
:1018B000898190E0982F88272A81822B9093DE02DD
:1018C0008093DD0242E0BE016F5F7F4F8CEA0E9491
:1018D000D30B898190E0982F88272A81822B9093BF
:1018E00034038093330342E0BE016F5F7F4F8EEA83
:1018F0000E94D30B898190E0982F88272A81822B20
:101900009093C6028093C50242E0BE016F5F7F4F95
:1019100080EB0E94D30B898190E0982F88272A8141
:10192000822B9093A00280939F0242E0BE016F5FE2
:101930007F4F82EB0E94D30B898190E0982F8827FC
:101940002A81822B9093F0028093EF0242E0BE0145
:101950006F5F7F4F84EB0E94D30B898190E0982FBB
:1019600088272A81822B9093D2028093D10242E071
:10197000BE016F5F7F4F86EB0E94D30B898190E0A1
:10198000982F88272A81822B9093D0028093CF02B0
:1019900042E0BE016F5F7F4F88EB0E94D30B8981CD
:1019A00090E0982F88272A81822B9093B802809309
:1019B000B70242E0BE016F5F7F4F8AEB0E94D30BFC
:1019C000898190E0982F88272A81822B9093EE02BC
:1019D0008093ED0242E0BE016F5F7F4F8CEB0E946F
:1019E000D30B898190E0982F88272A81822B9093AE
:1019F000F2028093F10242E0BE016F5F7F4F8EEBF7
:101A00000E94D30B898190E0982F88272A81822B0E
:101A10009093D4028093D3020F900F90DF91CF91D7
:101A20000895CF92DF92EF92FF92CF93DF9300D091
:101A3000CDB7DEB71A8219826EE284EF0E94BB0B2B
:101A40008FE097E20197F1F700C0000042E0BE018D
:101A50006F5F7F4F86EF0E94D30B2981822F90E02A
:101A6000A0E0B0E02227382F492F5A2F8A81282B57
:101A70008091D1029091D202281B390B4109510962
:101A8000A091EF02B091F0020E949B156B017C01C6
:101A90004FE0F594E794D794C7944A95D1F76091B5
:101AA000F1027091F202882777FD8095982F5BE014
:101AB000660F771F881F991F5A95D1F72091D3027F
:101AC0003091D402442737FD4095542F2C0D3D1DF5
:101AD0004E1D5F1D0E946D152C0D3D1D4E1D5F1D81
:101AE0002093CB023093CC024093CD025093CE0290
:101AF0000F900F90DF91CF91FF90EF90DF90CF90FC
:101B000008954F925F926F927F928F929F92AF92C1
:101B1000BF92CF92DF92EF92FF92CF93DF93CDB738
:101B2000DEB72B970FB6F894DEBF0FBECDBF19827C
:101B30001A821B820E94110D64EF84EF0E94BB0B7E
:101B40008FE19BEC0197F1F700C0000043E0BE017C
:101B50006F5F7F4F86EF0E94D30B8091CB029091F5
:101B6000CC02A091CD02B091CE02805A9F40A10933
:101B7000B1098C839D83AE83BF839C01AD01BC0101
:101B8000CD010E9427152B013C01E091DD02F0916F
:101B9000DE02A091C502B091C6020E94A6156B019B
:101BA0007C013DE0F594E794D794C7943A95D1F73A
:101BB000A091CF02B091D002A30192016CE05595A3
:101BC0004795379527956A95D1F70E94A615BB27AB
:101BD00097FDB095AB2FC80ED91EEA1EFB1E92E0F2
:101BE000C90ED11CE11CF11CB2E0F594E794D79426
:101BF000C794BA95D1F7A0E8DA0EE11CF11CA091C8
:101C00009F02B091A002A70196010E949B15DC01E2
:101C1000CB012FE0B695A795979587952A95D1F793
:101C200088879987AA87BB878981CA80D12CE12CB4
:101C3000F12CFE2CED2CDC2CCC24E82A8B81C82A3C
:101C400045E0F594E794D794C7944A95D1F74F01AE
:101C5000AA2497FCA094BA2C52E0880C991CAA1CC8
:101C6000BB1C5A95D1F7A091B702B091B802A3015D
:101C700092010E94A6152B013C0167E175946794BF
:101C8000579447946A95D1F7A0913303B0913403E8
:101C90002C813D814E815F810E94A615EBE09595D8
:101CA000879577956795EA95D1F7460E571E681E7A
:101CB000791E840C951CA61CB71C880C991CAA1CA8
:101CC000BB1CC818D908EA08FB08AAE6B8E1A701B6
:101CD00096010E949B1597FD0DC0660F771F881F08
:101CE000991F288539854A855B850E944B154901D6
:101CF0005A010CC0288539854A855B850E944B15A1
:101D000049015A01880C991CAA1CBB1C9927B7FCD5
:101D10009A958B2D7A2D692D9B01AC010E94271578
:101D20009B01AC01AEEDBBE00E949B156C01FF2452
:101D3000D7FCF094EF2CA3E4B3EEA50194010E942C
:101D4000A915BB2797FDB095AB2FC80ED91EEA1E6B
:101D5000FB1E9FECC90E9EE0D91EE11CF11CA4E005
:101D6000F594E794D794C794AA95D1F7C80CD91CD9
:101D7000EA1CFB1CC092C102D092C202E092C302D4
:101D8000F092C402C701B6010E94160C6093C10212
:101D90007093C2028093C3029093C4022B960FB635
:101DA000F894DEBF0FBECDBFDF91CF91FF90EF90D3
:101DB000DF90CF90BF90AF909F908F907F906F906B
:101DC0005F904F9008950E94110D6091CB02709129
:101DD000CC028091CD029091CE02685F7F4F8F4FF1
:101DE0009F4FA4E09595879577956795AA95D1F72C
:101DF0000E94911620E030E040E251E40E94271654
:101E000008950E94810D6091C1027091C20280917B
:101E1000C3029091C402685D754F8F4F9F4F089524
:101E20000E94810D6091C1027091C2028091C30233
:101E30009091C4020E94911620E836EE45EC57E4DA
:101E40000E94271621E03EED42E45EE30E941D174A
:101E50009B01AC0160E070E080E89FE30E94C21546
:101E60002BE43AE34DEB57E30E94271620E030E0E5
:101E7000A9010E94C3150895CF930E944E0F8AE1D5
:101E80008A95F1F700C00E944A0C0E94110DC5E12D
:101E90000E94810DC150E1F7CF9108951092B900D1
:101EA00080E28093B800089594EA9093BC009091EA
:101EB000BC0097FFFCCF9091B900987F983021F03B
:101EC000903111F081E008958093BB0084E8809305
:101ED000BC008091BC0087FFFCCF8091B900887F57
:101EE000883111F0803471F780E0089524EA34E8F5
:101EF00044E92093BC009091BC0097FFFCCF9091E7
:101F0000B900987F983011F0903199F78093BB0019
:101F10003093BC009091BC0097FFFCCF9091B9002A
:101F2000987F903211F0983539F44093BC0090912D
:101F3000BC0094FDFCCFDDCF08950C94540F84E9D0
:101F40008093BC008091BC0084FDFCCF08958093F9
:101F5000BB0084E88093BC008091BC0087FFFCCF6D
:101F60009091B900987F81E0983209F480E008955B
:101F700084EC8093BC008091BC0087FFFCCF8091F3
:101F8000BB00089584E88093BC008091BC0087FF6B
:101F9000FCCF8091BB00089517B88FE088B957989F
:101FA0005F9A27982F9A8AB1837E8AB98BB18C6108
:101FB0008BB9559A83E284BD82E085BD89E490E0C7
:101FC0000E946B1B8093A10288BD80E49CE99093E2
:101FD00089008093880089E08093810078948CE068
:101FE0000E94050880E40E948D07C1E1D3E0FE0154
:101FF00084910E9496072196F3E0C132DF07B9F77A
:102000000E94B20789E190E00E94B7090E943C0F4C
:1020100085EF92E00E940F0A60E080E00E949F0737
:102020008FED92E00E94E4078EEC92E00E94E407BC
:1020300068E077E584E190E00E943D060E94680236
:10204000382E81110EC08091F50181110AC062E025
:102050000E949F078AEB92E00E94E40789EA92E0DF
:1020600019C04AE062EA72E0832D90E00E941119E3
:1020700062E080E00E949F0782EA92E00E94D80717
:102080008EE992E00E94E40782EA92E00E94030A4D
:1020900080E892E00E940F0A60E17EEA88E290E028
:1020A0000E943D0680E090E0C0E0D0E021E030E01A
:1020B000831558F4A901082E02C0440F551F0A9435
:1020C000E2F7C42BD52B0196F3CF88E490E00E9471
:1020D0006B1B182F83111DC048E050E060E470E0D6
:1020E0008FED92E00E945B1B4FED52E0FA0161E040
:1020F00070E08E2F841B811760F49B01019002C059
:10210000220F331F0A94E2F720953095C223D32380
:10211000F0CFCD2BB1F0632D88E490E00E94831BBB
:102120008FED92E0FC012E2F281B231510F4219334
:10213000FACF48E050E060E470E08FED92E00E945A
:10214000791B8AE490E00E94731B9093EC028093C9
:10215000EB0205978B30974260F08FE090E0909310
:10216000EC028093EB026FE070E08AE490E00E9462
:10217000911B0E94B20782E080936F00212C02EE37
:1021800011E0C2EAD2E0C32CD12C260141E0441A6E
:102190005108332009F4D2C30E94B20780E792E0CD
:1021A0000E94E40780E00E94B8078BE692E00E945C
:1021B000E40781E00E94B8078FE592E00E94E407FF
:1021C0008BE492E00E94E40783B190E080959095C3
:1021D00087FD12C089B190E08095909582FD0CC07A
:1021E00089B190E08095909583FD06C089B190E01B
:1021F0008095909584FFE8CF83B190E0809590958D
:1022000087FF09C00E94B20783B190E08095909546
:1022100087FDFACF1FC10E94B20789B190E0809577
:10222000909582FDFACF89B190E08095909583FDDD
:10223000F4CF89B190E08095909584FDEECF88E44D
:1022400092E00E940F0A7FEDA72E72E0B72EE12CDC
:10225000F12CE314D8F53501F50181905F0189E394
:1022600092E00E940F0AC7010E941E0A82E392E0D8
:102270000E940F0AF301808190E00E941E0A8BE207
:1022800092E00E940F0AF8E08F9E40011124F401B1
:10229000ED50FD4F80818F77803119F48CE192E011
:1022A00002C084E192E00E940F0A80E192E00E9465
:1022B0000F0AC4018D509D4F0E9477058EE092E079
:1022C0000E940F0A2FEFE21AF20AC3CF8BE092E0CE
:1022D0000E940F0A8091F501811108C01092F1014E
:1022E0001092F2011092F3011092F4010E94B207D1
:1022F000832D0E943E05832D0E94E904622D832DCB
:102300000E9418031092F0011092EF016DEDE62E7D
:1023100061E0F62EBB24BA94B30C4B2D4E7FB42E45
:1023200089B190E08095909583FF20C068E671E1C7
:1023300084E090E00E943D0689B190E08095909500
:1023400082FD79C0E3E0E21518F42A942A9401C0D2
:102350002B2C0E94B207622D832D0E94180389B195
:1023600090E08095909583FDFACFDACF89B190E027
:102370008095909582FF23C068E671E184E090E04B
:102380000E943D0689B190E08095909583FD53C0F1
:10239000822D90E004968C159D051CF423942394C3
:1023A00001C0212C0E94B207622D832D0E941803C8
:1023B00089B190E08095909582FDFACFB1CF2091C0
:1023C000EF013091F0018091EB029091EC0228171F
:1023D000390780F0832D0E943E05832D0E94E90479
:1023E0000E94B207622D832D0E9418031092F00103
:1023F0001092EF0160E08FE00E949F072091EF01B3
:102400003091F0018091EB029091EC02821B930BD2
:102410009F938F93FF92EF92DF93CF930E94671960
:1024200082EA92E00E94D8070F900F900F900F90D1
:102430000F900F9075CF0E94B20789B190E0809500
:10244000909582FDFACF89B190E08095909583FDBB
:10245000F4CF9FCE63E081E00E949F078BEF91E075
:102460000E94E40760E080E00E949F0787EE91E011
:102470000E94E40761E080E00E949F075FEDE52E87
:1024800052E0F52E57019E2C8A2D8E19831538F4B3
:10249000F50181915F01805D0E94B807F5CF61E091
:1024A00080E00E949F078DE00E948D07B12C23B130
:1024B00030E02095309527FD7EC089B190E0809571
:1024C000909584FF12C0B3948B2D90E08C159D05E0
:1024D0000CF0B12C61E08B2D0E949F0789B190E038
:1024E0008095909584FDFACFE2CF89B190E08095F8
:1024F000909582FF2CC0BB2019F1EB2DF0E0DF019D
:10250000A152BD4F8C91E252FD4F90819C938083EC
:10251000BA9461E080E00E949F074FEDE42E42E014
:10252000F42E8E2D8919831538F4F70181917F01DE
:10253000805D0E94B807F5CF61E08B2D0E949F0758
:1025400089B190E08095909582FDFACFB0CF89B1A6
:1025500090E08095909583FFAACF2B2D30E0241535
:10256000350514F5D901A152BD4F8C91F901E05206
:10257000FD4F90819C938083B39461E080E00E9442
:102580009F073FEDE32E32E0F32E8E2D8919831540
:1025900038F4F70181917F01805D0E94B807F5CF83
:1025A00061E08B2D0E949F0729B130E02095309586
:1025B00023FDFACF7CCF48E050E060E470E08FED7F
:1025C00092E00E94791BF1E03F1209C08091FB026A
:1025D0008093390048E050E068E370E06BC022E08F
:1025E000321215C08091FB028093390048E050E020
:1025F00068E370E083EF92E00E94791B809103030F
:102600008093310048E050E060E370E053C043E065
:10261000341221C08091FB028093390048E050E0E1
:1026200068E370E083EF92E00E94791B80910303DE
:102630008093310048E050E060E370E083EF92E087
:102640000E94791B80910B038093290048E050E0A1
:1026500068E270E02FC084E0381230C08091FB0245
:102660008093390048E050E068E370E083EF92E047
:102670000E94791B809103038093310048E050E071
:1026800060E370E083EF92E00E94791B80910B037E
:102690008093290048E050E068E270E083EF92E028
:1026A0000E94791B809113038093210048E050E041
:1026B00060E270E083EF92E00E94791B8CE00E9460
:1026C0008D070E94B20783B190E08095909587FDB9
:1026D000FACF0E94B20785ED91E00E94E407809155
:1026E000EC028F938091EB028F931F930F93DF93F4
:1026F000CF930E94671982EA92E00E94D8070F9058
:102700000F900F900F900F900F90FFE0EF2EF7E2D9
:10271000FF2E83B190E08095909587FD92C0B12CFB
:1027200089B190E08095909582FF43C08091EB0243
:102730009091EC028F30E7E29E079CF5F2E0FB15EA
:1027400030F424E0B29E800D911D112401C0019649
:102750009093EC028093EB028091EB029091EC025B
:102760008031974224F0F092EC02E092EB0261E0BB
:1027700080E00E949F078091EC028F938091EB0292
:102780008F931F930F93DF93CF930E94671982EA71
:1027900092E00E94D8070F900F900F900F900F902B
:1027A0000F9068E671E184E090E00E943D06B394EA
:1027B000B7CFB12C89B190E08095909583FFA9CFD8
:1027C0008091EB029091EC028630910594F1E2E069
:1027D000EB1580F4F4E0BF9E90011124AC0145504C
:1027E0005109241735071CF4821B930B04C085E0A4
:1027F00090E001C001979093EC028093EB0261E0BE
:1028000080E00E949F078091EC028F938091EB0201
:102810008F931F930F93DF93CF930E94671982EAE0
:1028200092E00E94D8070F900F900F900F900F909A
:102830000F9068E671E184E090E00E943D06B39459
:10284000B9CF6091EB027091EC028AE490E00E94B3
:10285000911B0E94B20783B190E08095909587FD0F
:10286000FACF80E00E94B605612CE6EEEE2EE1E0A4
:10287000FE2E77247A94730C23B130E020953095A6
:1028800027FD54C0A62CB12CF501E152FD4F8080EC
:1028900060E08AE00E949F07F8E08F9E40011124CB
:1028A000C4018D509D4F4C010E944A06C4010E94F4
:1028B0005A069F938F93FF92EF92DF93CF930E94DC
:1028C000671982EA92E00E94D80789B190E080956A
:1028D00090950F900F900F900F900F900F9082FF98
:1028E00010C0A414B50414F4639401C0612C862DA7
:1028F0000E94B60589B190E08095909582FDFACF4F
:10290000BBCF89B190E08095909583FFB5CF6620CD
:1029100011F06A9401C0672C862D0E94B60589B11A
:1029200090E08095909583FDFACFA6CF0E94B207E4
:1029300083B190E08095909587FDFACF0E94B20711
:1029400085EC91E00E94E4078091A1021F928F9391
:102950001F930F93DF93CF930E94671982EA92E04F
:102960000E94D8070F900F900F900F900F900F902C
:1029700083B190E08095909587FD5AC089B190E031
:102980008095909582FF4DC08091A1028F3FE1F02C
:102990008F5F8093A10288BD61E080E00E949F0765
:1029A0008091A1021F928F931F930F93DF93CF9378
:1029B0000E94671982EA92E00E94D8070F900F9058
:1029C0000F900F900F900F906DE272E880E090E012
:1029D0000E943D06D3CF8091A1028823E1F081506F
:1029E0008093A10288BD61E080E00E949F078091F2
:1029F000A1021F928F931F930F93DF93CF930E9497
:102A0000671982EA92E00E94D8070F900F900F900A
:102A10000F900F900F906DE272E880E090E00E94BE
:102A20003D0689B190E08095909583FDD4CFA0CFED
:102A30006091A10289E490E00E94831B0E94B2078A
:102A400083B190E08095909587FDFACFA2CBDB0112
:102A50008F939F930E949B15BF91AF91A29F800D72
:102A6000911DA39F900DB29F900D1124089597FB87
:102A7000072E16F4009407D077FD09D00E94AE15FA
:102A800007FC05D03EF4909581959F4F0895709571
:102A900061957F4F0895A1E21A2EAA1BBB1BFD0171
:102AA0000DC0AA1FBB1FEE1FFF1FA217B307E4072D
:102AB000F50720F0A21BB30BE40BF50B661F771F85
:102AC000881F991F1A9469F7609570958095909565
:102AD0009B01AC01BD01CF010895052E97FB1EF4AB
:102AE00000940E94841557FD07D00E944B1507FCE7
:102AF00003D04EF40C948415509540953095219553
:102B00003F4F4F4F5F4F0895909580957095619519
:102B10007F4F8F4F9F4F0895A29FB001B39FC00179
:102B2000A39F700D811D1124911DB29F700D811DF9
:102B30001124911D08950E948C15A59F900DB49F9E
:102B4000900DA49F800D911D11240895B7FF0C9442
:102B50009B150E949B15821B930B0895AA1BBB1B00
:102B600051E107C0AA1FBB1FA617B70710F0A61B8D
:102B7000B70B881F991F5A95A9F780959095BC01AE
:102B8000CD0108955058BB27AA270ED01CC10DD1E6
:102B900030F012D120F031F49F3F11F41EF402C145
:102BA0000EF4E095E7FBF8C0E92F1ED180F3BA17C9
:102BB000620773078407950718F071F49EF536C114
:102BC0000EF4E0950B2EBA2FA02D0B01B901900148
:102BD0000C01CA01A0011124FF27591B99F0593F8C
:102BE00050F4503E68F11A16F040A22F232F342FD4
:102BF0004427585FF3CF469537952795A795F04022
:102C00005395C9F77EF41F16BA0B620B730B840B36
:102C1000BAF09150A1F0FF0FBB1F661F771F881FEE
:102C2000C2F70EC0BA0F621F731F841F48F4879546
:102C300077956795B795F7959E3F08F0B3CF939535
:102C4000880F08F09927EE0F9795879508950CD077
:102C5000BAC0B2D040F0A9D030F021F45F3F19F0F3
:102C60009BC05111E4C09EC0BFD098F39923C9F313
:102C70005523B1F3951B550BBB27AA276217730782
:102C8000840738F09F5F5F4F220F331F441FAA1F36
:102C9000A9F333D00E2E3AF0E0E830D091505040F6
:102CA000E695001CCAF729D0FE2F27D0660F771FA4
:102CB000881FBB1F261737074807AB07B0E809F086
:102CC000BB0B802DBF01FF2793585F4F2AF09E3F1B
:102CD000510568F061C0ABC05F3FECF3983EDCF398
:102CE000869577956795B795F7959F5FC9F7880F94
:102CF000911D9695879597F90895E1E0660F771FE6
:102D0000881FBB1F621773078407BA0720F0621B76
:102D1000730B840BBA0BEE1F88F7E0950895E894C7
:102D200009C097FB3EF490958095709561957F4F13
:102D30008F4F9F4F9923A9F0F92F96E9BB279395C1
:102D4000F695879577956795B795F111F8CFFAF4D1
:102D5000BB0F11F460FF1BC06F5F7F4F8F4F9F4F02
:102D600016C0882311F096E911C0772321F09EE860
:102D7000872F762F05C0662371F096E8862F70E0C6
:102D800060E02AF09A95660F771F881FDAF7880FA0
:102D90009695879597F9089597F99F6780E870E071
:102DA00060E008959FEF80EC089500240A941616C1
:102DB000170618060906089500240A941216130629
:102DC000140605060895092E0394000C11F48823B7
:102DD00052F0BB0F40F4BF2B11F460FF04C06F5FD3
:102DE0007F4F8F4F9F4F089557FD9058440F551FA9
:102DF00059F05F3F71F04795880F97FB991F61F07D
:102E00009F3F79F087950895121613061406551FF3
:102E1000F2CF4695F1DF08C0161617061806991F5F
:102E2000F1CF86957105610508940895E894BB2754
:102E300066277727CB0197F90895FA01EE0FFF1F58
:102E400030962105310599F16115710561F48038DD
:102E5000BFE39B0749F168949038810561F08038A1
:102E6000BFEF9B0741F0992342F5FF3FE105310594
:102E7000210511F1E8940894E795D901AA2329F4D2
:102E8000AB2FBE2FF85FD0F310C0FF5F70F4A69594
:102E9000E0F7F73950F019F0FF3A38F49F779F9335
:102EA0000CD00F9007FC905808953EF07BCF60E067
:102EB00070E080E89FE308954FE79F775F934F931B
:102EC0003F932F939ED02F913F914F915F910CD1C3
:102ED00005C019F40EF060CFA9CF64CF8DDFC8F321
:102EE0009638C0F707F80F92E8942BE33AEA48EBDC
:102EF0005FE708D10F920F920F924DB75EB70F9216
:102F0000C0D0E8E6F0E016D04F915F91EF91FF91CD
:102F1000E595EE1FFF1F49F0FE57E0684427EE0FCE
:102F2000441FFA95E1F74195550B32D00F9007FEFB
:102F300026C00895DF93CF931F930F93FF92EF92D4
:102F4000DF927B018C01689405C0DA2EEF01D8D0A6
:102F5000FE01E894A5912591359145915591AEF3E7
:102F6000EF0122DEFE019701A801DA9479F7DF90E4
:102F7000EF90FF900F911F91CF91DF9108959B01EA
:102F8000AC0160E070E080E89FE361CE05CF0FC147
:102F900033DFE8F39923D9F3940F511DBBF391501C
:102FA000504094F059F0882332F0660F771F881F45
:102FB00091505040C1F79E3F510544F7880F911D35
:102FC0009695879597F908955F3FACF0983E9CF0F1
:102FD000BB27869577956795B79508F4B16093956B
:102FE000C1F7BB0F58F711F460FFE8CF6F5F7F4F59
:102FF0008F4F9F4FE3CF1BCF0EF0D9C0D3CE689435
:10300000CBCEFADEC8F39923D1F3C6F3DF93CF9387
:103010001F930F93FF92C92FDD2788232AF0219752
:10302000660F771F881FDAF720E030E040E85FEB9B
:103030009FE3883920F0803E30F021968F77A3DD22
:10304000E0E9F0E003C09FDDEDEBF0E073DF8B0122
:10305000BE01EC01FB2E6F5771097595771F880B28
:10306000990B5FDE28E132E741E35FE349D0AF2D02
:103070009801AE01FF900F911F91CF91DF9194DDE8
:10308000A2CEFA01DC01AA0FBB1F9B01AC01BF5706
:1030900028F422273327442750781FC0B75188F4DB
:1030A000AB2F0024469537952795011CA395D2F3A5
:1030B000002069F0220F331F441FB395DAF30DD0BF
:1030C00061CD61307105A0E88A07B94630F49B01F3
:1030D000AC016627772788279078309621F02083E7
:1030E00031834283538308950BD06DCE5EDE28F08A
:1030F00063DE18F0952309F04FCE54CE112497CEFD
:1031000073DEA0F3959FD1F3950F50E0551F629F9A
:10311000F001729FBB27F00DB11D639FAA27F00D30
:10312000B11DAA1F649F6627B00DA11D661F829F57
:103130002227B00DA11D621F739FB00DA11D621F3C
:10314000839FA00D611D221F749F3327A00D611D59
:10315000231F849F600D211D822F762F6A2F11243B
:103160009F5750408AF0E1F088234AF0EE0FFF1F8E
:10317000BB1F661F771F881F91505040A9F79E3FC5
:10318000510570F009CE53CE5F3FECF3983EDCF36F
:10319000869577956795B795F795E7959F5FC1F702
:1031A000FE2B880F911D9695879597F908959F3F5F
:1031B00031F0915020F4879577956795B795880FF2
:1031C000911D9695879597F90895EF920F931F9308
:1031D000CF93DF93E80147FF02C034E101C034E040
:1031E000E42FFF27E7FDF095F7FF03C0F195E19588
:1031F000F109E32E022F2E2FAE010E94961BCE0165
:10320000DF91CF911F910F91EF90089545325105B5
:1032100020F4423010F00C941119FB011082CB0104
:103220000895BB274A3031F4992322F4BDE29095EA
:1032300081959F4F0C944E19BB272A3051F4992346
:1032400042F4BDE290958095709561957F4F8F4FC8
:103250009F4F0C942C19BB27FA01A62F62177105FA
:1032600081059105330B30FB66F0AA27660F771FA7
:10327000881F991FAA1FA21710F0A21B6395385030
:10328000A9F7A05DAA3308F0A95DA19336F7B111A3
:10329000B1931082CA010C94021EBB27FB01552773
:1032A000AA27880F991FAA1FA41710F0A41B8395A3
:1032B0005051B9F7A05DAA3308F0A95DA19300971A
:1032C00079F7B111B1931192CB010C94021EAEE0CB
:1032D000B0E0EDE6F9E10C94B01E0D891E8986E0A0
:1032E0008C831A8309838FEF9FE79E838D83AE01C2
:1032F000475E5F4F6F89788DCE0101960E948919D4
:10330000EF81F885E00FF11F10822E96E4E00C9417
:10331000CC1EACE0B0E0EFE8F9E10C94A21E7C0119
:103320006B018A01FC0117821682838181FFBDC176
:10333000CE0101964C01F7019381F60193FD859131
:1033400093FF81916F01882309F4ABC1853239F471
:1033500093FD859193FF81916F01853229F4B70127
:1033600090E00E94121EE7CF512C312C20E0203239
:10337000A0F48B3269F030F4803259F0833269F472
:1033800020612CC08D3239F0803339F4216026C0A1
:103390002260246023C0286021C027FD27C030EDB3
:1033A000380F3A3078F426FF06C0FAE05F9E300D01
:1033B0001124532E13C08AE0389E300D1124332E71
:1033C00020620CC08E3221F426FD6BC1206406C041
:1033D0008C3611F4206802C0883641F4F60193FD62
:1033E000859193FF81916F018111C1CF982F9F7DAE
:1033F0009554933028F40C5F1F4FFFE3F9830DC001
:10340000833631F0833771F0833509F05BC022C019
:10341000F801808189830E5F1F4F44244394512C0F
:10342000540115C03801F2E06F0E711CF801A08044
:10343000B18026FF03C0652D70E002C06FEF7FEF03
:10344000C5012C870E94F71D2C0183012C852F7745
:10345000222E17C03801F2E06F0E711CF801A08017
:10346000B18026FF03C0652D70E002C06FEF7FEFD3
:10347000C5012C870E94EC1D2C012C852068222E72
:10348000830123FC1BC0832D90E048165906B0F43D
:10349000B70180E290E00E94121E3A94F4CFF50149
:1034A00027FC859127FE81915F01B70190E00E9482
:1034B000121E31103A94F1E04F1A51084114510490
:1034C00071F7E5C0843611F0893639F5F80127FF28
:1034D00007C060817181828193810C5F1F4F08C09A
:1034E00060817181882777FD8095982F0E5F1F4F2F
:1034F0002F76B22E97FF09C09095809570956195B3
:103500007F4F8F4F9F4F2068B22E2AE030E0A401FA
:103510000E94441EA82EA81844C0853729F42F7E87
:10352000B22E2AE030E025C0F22FF97FBF2E8F3671
:10353000C1F018F4883579F0B4C0803719F08837B5
:1035400021F0AFC02F2F2061B22EB4FE0DC08B2D05
:103550008460B82E09C024FF0AC09F2F9660B92E40
:1035600006C028E030E005C020E130E002C020E1E4
:1035700032E0F801B7FE07C06081718182819381DA
:103580000C5F1F4F06C06081718180E090E00E5F8C
:103590001F4FA4010E94441EA82EA818FB2DFF77E0
:1035A000BF2EB6FE0BC02B2D2E7FA51450F4B4FEFB
:1035B0000AC0B2FC08C02B2D2E7E05C07A2C2B2D04
:1035C00003C07A2C01C0752C24FF0DC0FE01EA0D4A
:1035D000F11D8081803311F4297E09C022FF06C0CD
:1035E0007394739404C0822F867809F0739423FD3A
:1035F00013C020FF06C05A2C731418F4530C57182C
:10360000732C731468F4B70180E290E02C870E9459
:10361000121E73942C85F5CF731410F4371801C063
:10362000312C24FF12C0B70180E390E02C870E9468
:10363000121E2C8522FF17C021FF03C088E590E0F1
:1036400002C088E790E0B7010CC0822F867859F05D
:1036500021FD02C080E201C08BE227FD8DE2B701AF
:1036600090E00E94121EA51438F4B70180E390E0A8
:103670000E94121E5A94F7CFAA94F401EA0DF11D8C
:103680008081B70190E00E94121EA110F5CF332077
:1036900009F451CEB70180E290E00E94121E3A94E4
:1036A000F6CFF7018681978102C08FEF9FEF2C96AE
:1036B000E2E10C94BE1EDC01CB01FC01F999FECFC6
:1036C00006C0F2BDE1BDF89A319600B40D924150AA
:1036D0005040B8F70895F999FECF92BD81BDF89A90
:1036E000992780B50895A8E1B0E042E050E00C943D
:1036F0005D1BDC01CB0103C02D910E94841B415056
:103700005040D0F70895262FF999FECF1FBA92BDE9
:1037100081BD20BD0FB6F894FA9AF99A0FBE0196B2
:1037200008950E94831B272F0C94841B6F927F9215
:103730009F92AF92BF92CF92DF92EF92FF920F9340
:103740001F93CF93DF93CDB7DEB729970FB6F894C9
:10375000DEBF0FBECDBF6A01B22E102F0C3320F496
:10376000FF24F394F00E02C04CE3F42E0F2D27E05B
:10377000AE014F5F5F4F0E94141D7981272F297082
:10378000213031F0E1FC06C0E0FC06C060E005C07D
:103790006DE203C06BE201C060E2AE2DA07173FF69
:1037A00036C0662311F084E001C083E08B1510F46D
:1037B000B81A01C0B12CA1110BC0F6018B2D90E2FB
:1037C000882319F091938150FBCFCB0CD11CB12CE5
:1037D000662331F0F601608396012F5F3F4F690148
:1037E000C6010396E2FE05C02EE4F601208331E413
:1037F00004C02EE6F601208331E631832283FC01EA
:103800002B2D30E22223F1F131932150FBCF72FFB7
:1038100040C0662311F084E001C083E08B1510F4F2
:10382000B81A01C0B12CA1110BC0F6018B2D90E28A
:10383000882319F091938150FBCFCB0CD11CB12C74
:10384000662331F0F601608396012F5F3F4F6901D7
:10385000C6010396E2FE07C029E4F60120832EE4A8
:10386000218326E406C029E6F60120832EE6218383
:1038700026E62283FC012B2D30E2222319F031931E
:103880002150FBCFFC01EB0DF11D10828EEF9FEF5D
:10389000B7C0B1E0611101C0B0E04B2F50E0181685
:1038A000190624F49C012F5F3F4F02C021E030E055
:1038B000240F351F112329F0412F50E04F5F5F4F38
:1038C00002C040E050E0420F531F2B2D30E0421762
:1038D000530714F4B41A01C0B12C2E2D287159F4D9
:1038E000F6012B2D30E2222319F031932150FBCF2A
:1038F000CB0CD11CB12CBB2331F0F60160839601B7
:103900002F5F3F4F6901A1110BC0F6012B2D30E352
:10391000222319F031932150FBCFCB0CD11CB12CB9
:10392000F80E0A81372F3071A32E74FF03C00133C4
:1039300009F4FA941F142CF42F2D293018F028E0E4
:1039400001C021E0682F392F97FF02C060E030E00E
:10395000462F532F612C712C3EE2932EBC01621B2B
:1039600071099B01DC01A41BB50BE1E0F0E0EC0F59
:10397000FD1FAE0FBF1FE12EF12CF194E194F10871
:103980004F3FFFEF5F0731F4F6019082B6016F5FA2
:103990007F4F6B01841795074CF02417350734F4DB
:1039A000BD01660D771DFB01118101C010E341507F
:1039B0005109FFEF6F1A7F0AB6016F5F7F4F4E15F7
:1039C0005F0524F0F60110836B01DACF4817590721
:1039D00039F4063320F4053319F4A11001C011E3C2
:1039E000F6011083FB018B2D90E2882319F091934F
:1039F0008150FBCFFB01EB0DF11D108280E090E0C8
:103A000029960FB6F894DEBF0FBECDBFDF91CF91E0
:103A10001F910F91FF90EF90DF90CF90BF90AF90EC
:103A20009F907F906F900895283008F027E033270B
:103A3000DA01990F311D87FD9160009661057105CE
:103A400039F432602E5F3D9330E32A95E1F7089513
:103A50009F3F30F080387105610509F03C5F3C5FA5
:103A60003D93913008F08068911DDF93CF931F93B1
:103A70000F93FF92EF92192F987F9695E92F9695C5
:103A80009695E90FFF27E558FC4F99273327EE2439
:103A9000FF24A701E70105900894079428F4360F46
:103AA000E71EF81E491F511D660F771F881F991FBB
:103AB0000694A1F70590079428F4E70EF81E491F15
:103AC000561FC11D770F881F991F661F0694A1F707
:103AD0000590079428F4F80E491F561FC71FD11DE3
:103AE000880F991F661F771F0694A1F7059007940A
:103AF00020F4490F561FC71FD81F990F661F771F45
:103B0000881F0694A9F784911095177041F0D695F7
:103B1000C79557954795F794E7941A95C1F7E1E251
:103B2000F3E0689415901591359165919591059004
:103B30007FE27395E118F10A430B560BC90BD009CC
:103B4000C0F7E10CF11E431F561FC91FD01D7EF4A4
:103B5000703311F48A95E6CFE894015030F0080FE5
:103B60000AF40027021708F4202F2395022F7A3336
:103B700028F079E37D932A95E9F710C07D932A9583
:103B800089F6069497956795379517951794E118D8
:103B9000F10A430B560BC90BD00998F023957E917F
:103BA00073957A3308F070E37C932013B8F77E9115
:103BB00070617D9330F0839571E37D9370E32A9576
:103BC000E1F71124EF90FF900F911F91CF91DF91BA
:103BD000992787FD90950895FC01059061507040EC
:103BE0000110D8F7809590958E0F9F1F0895FC01C6
:103BF0006150704001900110D8F7809590958E0F1C
:103C00009F1F0895DC01FC01672F71917723E1F775
:103C1000329704C07C916D9370836291AE17BF0799
:103C2000C8F308950F931F93CF93DF93182F092F95
:103C3000EB018B8181FD03C08FEF9FEF20C082FFDE
:103C400010C04E815F812C813D81421753077CF467
:103C5000E881F9819F012F5F3F4F398328831083CB
:103C600006C0E885F985812F0995892B29F72E81D2
:103C70003F812F5F3F4F3F832E83812F902FDF9116
:103C8000CF911F910F910895FA01AA27283051F181
:103C9000203181F1E8946F936E7F6E5F7F4F8F4F7D
:103CA0009F4FAF4FB1E03ED0B4E03CD0670F781FDC
:103CB000891F9A1FA11D680F791F8A1F911DA11DC1
:103CC0006A0F711D811D911DA11D20D009F46894FA
:103CD0003F912AE0269F11243019305D3193DEF6A2
:103CE000CF010895462F4770405D4193B3E00FD058
:103CF000C9F7F6CF462F4F70405D4A3318F0495D43
:103D000031FD4052419302D0A9F7EACFB4E0A69525
:103D10009795879577956795BA95C9F70097610547
:103D2000710508959B01AC010A2E0694579547959D
:103D300037952795BA95C9F7620F731F841F951F92
:103D4000A01D08952F923F924F925F926F927F92A3
:103D50008F929F92AF92BF92CF92DF92EF92FF929B
:103D60000F931F93CF93DF93CDB7DEB7CA1BDB0B47
:103D70000FB6F894DEBF0FBECDBF09942A883988EC
:103D800048885F846E847D848C849B84AA84B984F3
:103D9000C884DF80EE80FD800C811B81AA81B981FF
:103DA000CE0FD11D0FB6F894DEBF0FBECDBFED0113
:063DB0000895F894FFCF16
:103DB60000001F003B005A0078009700B500D400B1
:103DC600F300110130014E016D0101030406090BD8
:103DD6000C0E2569234F757420252B3034692E254A
:103DE60063C60A002569234F757420252B30346974
:103DF6002E2563C50A002569234F757420252B30AF
:103E060034692E2563C70A00256923506D7057252E
:103E16002B3034692E25630A00256923436C6C72A6
:103E2600252B3034692E25630A00256923426C65EB
:103E360072252B3034692E25630A0074656D706512
:103E46007261747572653A200020432064656700CC
:103E56000D0A006162732E70726573737572653A2E
:103E66002020200020506100616C746974756465BF
:103E76002020203A2000204D2061626F7665207355
:103E8600656100252B3034692E25633B0025346996
:0E3E9600730025346900307825303478000040
:00000001FF
